:020000040800F2
:1000000090060020890100080B0400080304000882
:1000100007040008A90200080F09000800000000FA
:100020000000000000000000000000009105000832
:10003000AD020008000000009F010008A1010008B7
:10004000A3010008A3010008A3010008A301000800
:10005000A3010008A3010008A3010008A3010008F0
:10006000A3010008A3010008A3010008A3010008E0
:10007000A3010008A3010008A3010008A3010008D0
:10008000A3010008A3010008A3010008A3010008C0
:10009000A3010008A3010008A3010008A3010008B0
:1000A000A3010008A3010008A3010008A3010008A0
:1000B000A3010008A3010008A3010008A301000890
:1000C000A3010008A3010008A3010008A301000880
:1000D000A30100080D070008A3010008A301000800
:1000E000A3010008A3010008A301000800F002F822
:1000F00000F03AF80AA090E8000C82448344AAF188
:100100000107DA4501D100F02FF8AFF2090EBAE885
:100110000F0013F0010F18BFFB1A43F0010318473B
:100120004C0800006C080000103A24BF78C878C161
:10013000FAD8520724BF30C830C144BF04680C60ED
:10014000704700000023002400250026103A28BF35
:1001500078C1FBD8520728BF30C148BF0B60704739
:100160001FB51FBD10B510BD00F069F81146FFF7AF
:10017000F7FF00F0CFFB00F087F803B4FFF7F2FFC2
:1001800003BC00F08BF8000009488047094800478D
:10019000FEE7FEE7FEE7FEE7FEE7FEE7FEE7FEE737
:1001A000FEE7FEE704480549054A064B7047000094
:1001B0007D060008ED000008900000209006002059
:1001C000900200209002002010B5203AC0F00B8071
:1001D000B1E81850203AA0E81850B1E81850A0E84B
:1001E0001850BFF4F5AF5FEA027C24BFB1E81850A5
:1001F000A0E8185044BF18C918C0BDE810405FEA15
:10020000827C24BF51F8043B40F8043B08BF704790
:10021000D20728BF31F8023B48BF11F8012B28BF95
:1002200020F8023B48BF00F8012B70477047704729
:1002300070470000004870472C000020704775464A
:10024000FFF7F8FFAE4605006946534620F0070069
:10025000854618B020B5FFF7A5FFBDE820404FF058
:1002600000064FF000074FF000084FF0000B21F0A0
:100270000701AC46ACE8C009ACE8C009ACE8C0096D
:10028000ACE8C0098D46704710B50446AFF3008056
:100290002046BDE81040FFF770BF0000014918205C
:1002A000ABBEFEE72600020000BFFEE7704700007D
:1002B00008B54FF40070ADF8000018208DF8030069
:1002C00003208DF802006946074800F00FF84FF44C
:1002D0008060ADF8000004208DF8030069460248F4
:1002E00000F004F808BD0000000801402DE9F041CD
:1002F000024600250026002000230024002791F854
:1003000003C00CF00F0591F803C00CF0100CBCF109
:10031000000F03D091F802C04CEA050591F800C027
:10032000BCF1000F31D0146800202BE04FF0010C1D
:100330000CFA00F3B1F800C00CEA03069E4220D18B
:1003400083004FF00F0C0CFA03F7BC4305FA03FCD3
:100350004CEA040491F803C0BCF1280F06D14FF019
:10036000010C0CFA00FCC2F814C00AE091F803C0BA
:10037000BCF1480F05D14FF0010C0CFA00FCC2F89B
:1003800010C0401C0828D1D31460B1F800C0BCF1E3
:10039000FF0F34DD546800202EE000F1080C4FF010
:1003A000010808FA0CF3B1F800C00CEA03069E42FB
:1003B00021D183004FF00F0C0CFA03F7BC4305FA70
:1003C00003FC4CEA040491F803C0BCF1280F05D1EA
:1003D00000F1080C08FA0CF8C2F8148091F803C078
:1003E000BCF1480F07D100F1080C4FF0010808FAE2
:1003F0000CF8C2F81080401C0828CED35460BDE829
:10040000F08100BFFEE700BFFEE7704708B525207A
:100410008DF8000000208DF801008DF80200012009
:100420008DF80300684600F001F808BD70B50021A2
:1004300000230F22C47804B3154C246804F4E0644C
:10044000C4F5E064210AC1F10403CA40447804FA07
:1004500003F184781440214309010E4C0678A1551C
:10046000047804F01F050124AC4005786D11AD003F
:1004700005F1E025C5F8004109E0047804F01F0506
:100480000124AC40044D0678761145F8264070BD35
:100490000CED00E000E400E080E100E029B1064A54
:1004A00092690243044B9A6104E0034A92698243D1
:1004B000014B9A61704700000010024030B50021E6
:1004C0000022002400232D4D6D6805F00C0121B1A0
:1004D000042905D0082923D105E0294D056022E033
:1004E000274D05601FE0254D6D6805F47012234D02
:1004F0006D6805F48034022505EB92421CB9214D4C
:10050000554305600BE01D4D6D6805F400351DB1C8
:100510001C4D5543056002E0194D5543056002E04E
:10052000174D056000BF00BF144D6D6805F0F00168
:100530000909154D6B5C0568DD4045600F4D6D6820
:1005400005F4E061090A104D6B5C4568DD4085608B
:100550000A4D6D6805F46051C90A0B4D6B5C456826
:10056000DD40C560054D6D6805F44041890B074DC0
:100570006B5CC568B5FBF3F5056130BD001002404A
:1005800000127A0000093D00090000201900002037
:10059000704710B500F002F810BD00000CB5002047
:1005A000019000903348006840F480303149086081
:1005B00000BF3048006800F4003000900198401CF3
:1005C0000190009818B90198B0F5A06FF1D12948B1
:1005D000006800F4003010B10120009001E000201C
:1005E00000900098012843D12348006840F0100093
:1005F000214908600846006820F0030008600846AA
:10060000006840F0020008601A48406819494860D4
:100610000846406848600846406840F4806048608A
:100620000846406820F47C1048600846406840F462
:10063000E81048600846006840F08070086000BF1D
:100640000C48006800F000700028F9D009484068A4
:1006500020F00300074948600846406840F0020067
:10066000486000BF0348406800F00C000828F9D13A
:100670000CBD0000001002400020024010B51348DD
:10068000006840F0010011490860084640681049C0
:1006900008400E494860084600680E4908400B496A
:1006A00008600846006820F480200860084640681A
:1006B00020F4FE0048604FF41F008860FFF769FFD8
:1006C0004FF000600449086010BD000000100240B7
:1006D0000000FFF8FFFFF6FE08ED00E070B50446ED
:1006E0000D460BE014F8011B074800F00CF900BFA1
:1006F0004021054800F064F80028F9D0281EA5F133
:100700000105EFD170BD00000038014010B514485C
:10071000008800F0200008B3114800F0EFF81149FC
:100720000860114800680A2809D1084600780F4976
:100730000D4A1268885400200B49086009E00948F6
:100740000178094802680068401C074B1860074898
:10075000815400200549044A1268885410BD0000E5
:10076000003801400000002004000020200000208C
:1007700021B1828942F40052828104E082894DF6DF
:10078000FF731A40828170471FB54FF416500090D6
:100790000020ADF80400ADF80600ADF80800ADF893
:1007A0000C000C20ADF80A006946044800F03AF845
:1007B00001210248FFF7DCFF1FBD000000380140A7
:1007C00002460020B1F5007F00D100BF13880B4026
:1007D0000BB1012000E000207047F0B50346002473
:1007E00000260025002040F66A17B94200D100BF5C
:1007F0001846C1F3421401F01F06012707FA06F557
:10080000012C01D10C3004E0022C01D1103000E0A9
:1008100014301AB107682F43076002E00768AF433E
:100820000760F0BD2DE9F04786B005460E4600246E
:10083000A24600BFA1460027B08900B100BF2F46E5
:100840002C8A4CF6FF700440F08804432C82AC895B
:100850004EF6F3100440B08831890843718908438B
:100860000443AC81AC8A4FF6FF400440B089044396
:10087000AC8201A8FFF722FE1F48874202D1DDF8B3
:1008800010A001E0DDF80CA0A88900F4004040B100
:100890000AEBCA0000EB0A1031684900B0FBF1F81E
:1008A00007E00AEBCA0000EB0A1031688900B0FBD0
:1008B000F1F86420B8FBF0F004012009642101FB89
:1008C0001089A88900F4004040B1322000EBC90033
:1008D000B0FBF1F000F00700044308E0322000EB29
:1008E00009106421B0FBF1F000F00F0004432C81EB
:1008F00006B0BDE8F0870000003801400146888856
:10090000C0F308007047C1F308028280704700BF3F
:10091000FEE7000086B018220DA16846FFF754FCE0
:10092000012144F20400FFF7B9FDFFF76FFDFFF767
:10093000BFFCFFF729FF012240F225510A48FFF7CB
:100940004CFF16216846FFF7C9FE00BFFEE7000016
:100950002057656C636F6D6520746F20436F6F4324
:100960006F78210D0A000000003801408C09000852
:10097000000000202000000028010008AC09000849
:100980002000002070060000440100080000000064
:100990000000000000000000000102030401020347
:0C09A00004060708090204060800000015
:04000005080000ED02
:00000001FF
