:020000040800F2
:100000002807002089010008F9040008F10400080D
:10001000F50400084302000805080008000000007D
:10002000000000000000000000000000A105000822
:1000300047020008000000009F0100088D0600082C
:10004000A3010008A3010008A3010008A301000800
:10005000A3010008A3010008490200085D0200088E
:10006000A30100087102000885020008A30100082E
:10007000A3010008A3010008A3010008A3010008D0
:10008000A3010008A3010008A3010008A3010008C0
:10009000A3010008A3010008A301000899020008B9
:1000A000A3010008A3010008A3010008A3010008A0
:1000B000A3010008A3010008A3010008A301000890
:1000C000A3010008A3010008A3010008A301000880
:1000D000A30100080D070008350700085D070008A8
:1000E000A3010008A3010008A301000800F002F822
:1000F00000F03AF80AA090E8000C82448344AAF188
:100100000107DA4501D100F02FF8AFF2090EBAE885
:100110000F0013F0010F18BFFB1A43F0010318473B
:10012000980B0000B80B0000103A24BF78C878C1C3
:10013000FAD8520724BF30C830C144BF04680C60ED
:10014000704700000023002400250026103A28BF35
:1001500078C1FBD8520728BF30C148BF0B60704739
:100160001FB51FBD10B510BD00F031F81146FFF7E7
:10017000F7FF00F039FD00F04FF803B4FFF7F2FF8E
:1001800003BC00F057F800000948804709480047C1
:10019000FEE7FEE7FEE7FEE7FEE7FEE7FEE7FEE737
:1001A000FEE7FEE704480549054A064B7047000094
:1001B000AD060008ED0000082801002028070020F7
:1001C00028030020280300207047704770477546B9
:1001D00000F02CF8AE4605006946534620F00700B3
:1001E000854618B020B5FFF7DDFFBDE820404FF091
:1001F00000064FF000074FF000084FF0000B21F011
:100200000701AC46ACE8C009ACE8C009ACE8C009DD
:10021000ACE8C0098D46704710B50446AFF30080C6
:100220002046BDE81040FFF7A8BF00000048704717
:10023000C800002001491820ABBEFEE726000200DE
:10024000704700BFFEE7704710B5012002490870F3
:1002500000F032F810BD00002400002010B501208D
:1002600002490870022000F027F810BD2500002088
:1002700010B5012002490870082000F01DF810BDDB
:100280002600002010B5012002490870102000F05F
:1002900013F810BD2700002010B5202000F012F840
:1002A00030B10448006800F0DBFC202000F004F8C6
:1002B00010BD00002C0000200149086070470000BC
:1002C00014040140014600200022074B1B6803EA8A
:1002D0000102054B14331B680B4013B10AB1012016
:1002E00000E0002070470000000401400021234985
:1002F0008279002A3AD00A46126803689A430B466C
:100300001A600A1D126803689A430B1D1A6002796D
:1003100011440A6803681A430A60184A08321268CE
:1003200003689A43154B08331A601A1D1268036854
:100330009A43124B0C331A604279102A0ED11A1FBD
:10034000126803681A430D4B08331A601A1D1268AD
:1003500003681A43094B0C331A600DE007494279D0
:1003600011440A6803681A430A6005E002791144DF
:100370000A6803689A430A6070470000000401405D
:1003800030B500228B071C0F0F2303FA04F20B4B2E
:100390008C1053F824309343084C8D1044F82530CA
:1003A00023468C1053F824308C07240F00FA04F4F1
:1003B0002343024C8D1044F8253030BD0800014025
:1003C0002DE9F041024600250026002000230024EC
:1003D000002791F803C00CF00F0591F803C00CF052
:1003E000100CBCF1000F03D091F802C04CEA0505D7
:1003F00091F800C0BCF1000F31D0146800202BE050
:100400004FF0010C0CFA00F3B1F800C00CEA03063F
:100410009E4220D183004FF00F0C0CFA03F7BC432F
:1004200005FA03FC4CEA040491F803C0BCF1280F60
:1004300006D14FF0010C0CFA00FCC2F814C00AE01F
:1004400091F803C0BCF1480F05D14FF0010C0CFA34
:1004500000FCC2F810C0401C0828D1D31460B1F8C9
:1004600000C0BCF1FF0F34DD546800202EE000F125
:10047000080C4FF0010808FA0CF3B1F800C00CEAC0
:1004800003069E4221D183004FF00F0C0CFA03F7B4
:10049000BC4305FA03FC4CEA040491F803C0BCF128
:1004A000280F05D100F1080C08FA0CF8C2F81480E6
:1004B00091F803C0BCF1480F07D100F1080C4FF0D0
:1004C000010808FA0CF8C2F81080401C0828CED3A6
:1004D0005460BDE8F0810246002093680B400BB1E8
:1004E000012000E0002070474161704701617047C2
:1004F00000BFFEE700BFFEE77047000070B50021B7
:1005000000230F22C47804B3154C246804F4E0647B
:10051000C4F5E064210AC1F10403CA40447804FA36
:1005200003F184781440214309010E4C0678A1554B
:10053000047804F01F050124AC4005786D11AD006E
:1005400005F1E025C5F8004109E0047804F01F0535
:100550000124AC40044D0678761145F8264070BD64
:100560000CED00E000E400E080E100E0024901431E
:10057000024A1160704700000000FA050CED00E02F
:1005800029B1064A92690243044B9A6104E0034A86
:1005900092698243014B9A6170470000001002404B
:1005A000704710B500F002F810BD00000CB5002037
:1005B000019000903348006840F480303149086071
:1005C00000BF3048006800F4003000900198401CE3
:1005D0000190009818B90198B0F5A06FF1D12948A1
:1005E000006800F4003010B10120009001E000200C
:1005F00000900098012843D12348006840F0100083
:10060000214908600846006820F003000860084699
:10061000006840F0020008601A48406819494860C4
:100620000846406848600846406840F4806048607A
:100630000846406820F47C1048600846406840F452
:10064000E81048600846006840F08070086000BF0D
:100650000C48006800F000700028F9D00948406894
:1006600020F00300074948600846406840F0020057
:10067000486000BF0348406800F00C000828F9D12A
:100680000CBD000000100240002002400548006838
:10069000401C0449086004480068401C0249086086
:1006A000704700005C0000206400002010B5134873
:1006B000006840F001001149086008464068104990
:1006C00008400E494860084600680E4908400B493A
:1006D00008600846006820F48020086008464068EA
:1006E00020F4FE0048604FF41F008860FFF759FFB8
:1006F0004FF000600449086010BD00000010024087
:100700000000FFF8FFFFF6FE08ED00E010B540F234
:100710002551064800F036F830B10448001D008825
:10072000C1B2034800F058F810BD00000038014085
:100730003400002010B540F22551064800F022F8A0
:1007400030B10448001D0088C1B2034800F044F8ED
:1007500010BD0000004400404000002010B540F2F1
:100760002551064800F00EF830B10448001D0088FD
:10077000C1B2034800F030F810BD0000004800404E
:100780004C00002070B50246002400230025002004
:1007900040F66A16B14200D100BFC1F3421501F024
:1007A0001F03012606FA03F3012D02D19689334077
:1007B00006E0022D02D1168A334001E0968A3340CA
:1007C0000C12012606FA04F41688344013B10CB159
:1007D000012000E0002070BD10B5C28883889A42D5
:1007E0000FDA028983889A4201D1002202814AB23B
:1007F000048903681A550289521C0281C288521C5E
:10080000C28010BD00BFFEE770B54FF44070FFF727
:10081000ADFE144800684FF47A72B0FBF2F1B1F10A
:10082000807F00D31DE021F07F40401E4FF0E0228A
:10083000506150170F22002807DA13071D0E0A4BCC
:1008400000F00F04241F1D5503E013071C0E074B77
:100850001C5400BF00204FF0E0229061072010617F
:1008600000BF70BD0000002018ED00E000E400E0D3
:1008700030B5044600F0D4F9051900BF00F0D0F9F6
:10088000A842FBD330BD00002DE9FF47064689464C
:10089000924601210846FFF773FE6B48864203D15A
:1008A00004274FF0000828E06848864203D1082753
:1008B0004FF0010821E06648864203D110274FF02F
:1008C00002081AE06348864203D120274FF003084C
:1008D00013E06148864203D140274FF004080CE042
:1008E0005E48864203D180274FF0050805E05C484A
:1008F000864202D187154FF00608B9F5807F4BD0AC
:100900001ADCB9F1100F3BD00CDCB9F1010F2BD080
:10091000B9F1020F2BD0B9F1040F2BD0B9F1080FA8
:1009200052D12AE0B9F1200F2DD0B9F1400F2DD0CE
:10093000B9F1800F48D12CE0B9F5805F38D009DCDF
:10094000B9F5007F2BD0B9F5806F2BD0B9F5006FCA
:100950003AD12AE0B9F5005F2DD0B9F5804F2DD0FE
:10096000B9F5004F30D12CE0002406252DE00124FC
:1009700007252AE00224082527E00324092524E08E
:1009800004240A2521E0052417251EE00624172546
:100990001BE00724172518E00824172515E0092473
:1009A000172512E00A2428250FE00B2428250CE047
:1009B0000C24282509E00D24282506E00E242825EE
:1009C00003E00F24282500E000BF00BF01213846C6
:1009D000FFF7D6FDADF80C9003208DF80E00BAF1AC
:1009E0000C0F03D148208DF80F0009E0BAF1080F71
:1009F00003D128208DF80F0002E004208DF80F00AD
:100A000003A93046FFF7DCFC21464046FFF7B8FC5F
:100A1000CDF8049001208DF80A0000208DF8080020
:100A20008DF809A001A8FFF761FC8DF800500A209D
:100A30008DF801008DF8024001208DF80300684612
:100A4000FFF75CFDBDE8FF8700080140000C014096
:100A5000001001400014014000180140001C01403A
:100A6000002001401CB50AE001204FF4FA71034652
:100A70001022CDE9001020212A4800F0F5F82A487C
:100A8000007828B908212948FFF725FD0028EBD177
:100A900000202549087009E00120C82103460246CC
:100AA000CDE9001002211F4800F0DEF82048007850
:100AB00028B901211D48FFF70EFD0028ECD10020C8
:100AC0001B49087009E00120C82103460422CDE932
:100AD00000100821134800F0C7F81648007828B91C
:100AE00002211248FFF7F7FC0028ECD10020114941
:100AF00008700AE001204FF4FA7103464022CDE964
:100B000000108021074800F0AFF80B48007828B9A2
:100B100010210648FFF7DFFC0028EBD10020064932
:100B200008701CBD0008014026000020000C014098
:100B3000240000202500002027000020F8B50446EE
:100B40000D4616461F462148844204D10121042047
:100B5000FFF716FD2EE01E48844204D10121082033
:100B6000FFF70EFD26E01B48844204D1012110202E
:100B7000FFF706FD1EE01848844204D10121202021
:100B8000FFF7FEFC16E01548844204D10121402005
:100B9000FFF7F6FC0EE01248844204D101218020C8
:100BA000FFF7EEFC06E00F48844203D101218015D7
:100BB000FFF7E6FCADF800508DF803608DF8027089
:100BC00069462046FFF7FCFBF8BD00000008014025
:100BD000000C0140001001400014014000180140C9
:100BE000001C01400020014010B5FFF70DFE03235B
:100BF0001022FF210848FFF7A1FF08220B21074818
:100C0000FFF742FE082210210448FFF73DFEFFF7E0
:100C100029FF002010BD000000080140000C014029
:100C200000B50B4800684FF47A72B0FBF2F04FF059
:100C3000E0229269801A4822B0FBF2F200F00AF832
:100C400000EB4003C3EBC01002EBC001084600BD3F
:100C50000000002001480068704700005C00002090
:100C600010B50446A04710BD2DE9F0470746884659
:100C700014461D46DDE9089A002625B92146384666
:100C8000FFF732FC03E021463846FFF72FFC002631
:100C90000EE041463846FFF727FC0A20FFF7E8FD43
:100CA00041463846FFF722FC4846FFF7E1FD761C37
:100CB0005645EED3BDE8F087D80C000800000020B0
:100CC0006800000028010008400D000868000020AE
:100CD000C00600004401000800A24A040000000011
:100CE00000000000010203040607080900000000DC
:100CF00000000000000000000000000000000000F4
:100D000000000000650A00080000000068000020E4
:100D100020000000000000008800002020000000EB
:100D200000000000A80000202000000000000000DB
:100D300000000000000000000000000000000000B3
:04000005080000ED02
:00000001FF
