:020000040800F2
:10000000F0090020D9010008830900087B090008D5
:100010007F090008390600081513000800000000D9
:100020000000000000000000000000005D0B000860
:100030003D06000800000000EF010008490C000820
:10004000F3010008F3010008F3010008F3010008C0
:10005000F3010008F30100084106000855060008F6
:10006000F3010008690600087D060008F301000896
:10007000F3010008F3010008F3010008F301000890
:10008000F3010008F3010008F3010008F301000880
:10009000F3010008F3010008F301000891060008CD
:1000A000F3010008F3010008F3010008F301000860
:1000B000F3010008F3010008F3010008F301000850
:1000C000F3010008F3010008F3010008F301000840
:1000D000F3010008C90C0008A10D0008550E000826
:1000E000F3010008F3010008F301000800F002F832
:1000F00000F062F80AA090E8000C82448344AAF160
:100100000107DA4501D100F057F8AFF2090EBAE85D
:100110000F0013F0010F18BFFB1A43F0010318473B
:10012000501A0000701A00000A444FF0000C10F83A
:10013000013B13F0070408BF10F8014B1D1108BF65
:1001400010F8015B641E05D010F8016B641E01F805
:10015000016BF9D113F0080F1EBF10F8014BAD1C55
:100160000C1B09D16D1E58BF01F801CBFAD505E073
:1001700014F8016B01F8016B6D1EF9D59142D6D3CD
:10018000704700000023002400250026103A28BFF5
:1001900078C1FBD8520728BF30C148BF0B607047F9
:1001A000642900F08580732900F0F18100207047F8
:1001B0001FB51FBD10B510BD00F009FA1146FFF7BD
:1001C000F7FF01F0AFFA00F027FA03B4FFF7F2FFF0
:1001D00003BC00F02BFA000009488047094800479B
:1001E000FEE7FEE7FEE7FEE7FEE7FEE7FEE7FEE7E7
:1001F000FEE7FEE704480549054A064B7047000044
:10020000690C0008ED000008F0030020F009002050
:10021000F0050020F00500200FB4044910B503AA32
:10022000029800F0B9F910BC5DF814FB340100200D
:100230000FB41CB5084B06AA7B446946009005988C
:1002400000F07BF904460020694600F089F9204659
:100250001CBC5DF814FB00002503000070B50C46C3
:100260000546012A05D02878800600D5EA690023D2
:1002700002E0012305E05B1C934202D2E05C00280F
:10028000F9D1A869E618C01AA861286A184428623A
:100290002846AFF3008004E0D5E9012114F8010BF2
:1002A0009047B442F8D32846AFF3008070BD0000F9
:1002B0002DE9F0410646002410687529314616A53F
:1002C00010D0AFF30080002802DA404213A507E007
:1002D00031688A0701D512A502E0490704D511A5A6
:1002E000012401E0AFF3008000210A2206F1240777
:1002F00009E0B0FBF2FCB0FBF2F302FB1C00303073
:1003000078541846491C0028F3D123462A46304623
:10031000BDE8F04100F0B3B8000000002D0000007F
:100320002B000000200000002DE9F05F8946044604
:100330004FF0000ADFF824B1FB44C0F820A02046AB
:10034000E168884700287DD0252806D0D4E901211E
:100350009047206A401C2062F1E700255F46204656
:10036000E16888472028064607DB312E05D2B819F8
:1003700010F8200C08B10543F1E7A80701D525F0D6
:100380000405C4F81CA00027C4F818A02A2E09D020
:10039000304600F0C1FF38B304EB8708303EC8F8A0
:1003A000186019E059F8041B204604EB870291619C
:1003B000E1688847012F064618D1E069002820DA55
:1003C00025F020051DE0D8F8180000EB800006EBB2
:1003D00040003038C8F818002046E16888470646D3
:1003E00000F09AFF0028EED1012F0AD02E2E08D15E
:1003F0002046E16888477F1C0646022F45F020050D
:10040000C4DBA069002803DA404245F00105A06181
:10041000E80701D025F01005A6B1A6F14100192882
:1004200002D8203645F400654A463146204625600C
:100430004D46FFF7B5FE60B1012807D0ED1D25F050
:10044000070000E007E000F1080978E705F104097A
:1004500075E730467AE7206ABDE8F09F2018000073
:10046000421E12F8013F002BFBD111F8013B002B7B
:1004700002F8013BF9D170477047704770472DE98A
:10048000F0470D4699469246044600F1240801685B
:10049000880604D5E06921F01001216000E0012008
:1004A000A84201DD471B00E00027A1697A1902EB91
:1004B0000900081AA0612078C00602D42046AFF3D4
:1004C0000080002608E0D4E901211AF806009047D0
:1004D000206A401C761C20624E45F4DB2078C00662
:1004E0000AD52046AFF3008006E0D4E90121302090
:1004F0009047206A401C2062381EA7F10107F4DCF7
:1005000007E0D4E9012118F805009047206A401C53
:100510002062281EA5F10105F3DC2046AFF3008020
:100520002078000602D50220BDE8F0870120FBE715
:1005300001694A1C02610878704700B58FB0CDE9A7
:1005400001310021059105497944CDE90310114697
:100550006846FFF7E9FE0FB000BD0000E5FFFFFFB2
:100560000A6802F8010B0A60704710B5436913B1BD
:10057000AFF3008001E0FFF771FE012010BD12789B
:1005800000F124010A7000224A700122EDE711688F
:100590004FF0FF32E9E70000074B70B50D467B4492
:1005A000FFF7CBFF0446284600F00CF810B14FF0DF
:1005B000FF3070BD204670BDE30F0000004870475B
:1005C0008C030020007B00F0800070477047754668
:1005D000FFF7F4FFAE4605006946534620F00700DA
:1005E000854618B020B5FFF705FEBDE820404FF066
:1005F00000064FF000074FF000084FF0000B21F00D
:100600000701AC46ACE8C009ACE8C009ACE8C009D9
:10061000ACE8C0098D46704710B50446AFF30080C2
:100620002046BDE81040FFF7D0BD0000014918206A
:10063000ABBEFEE72600020000BFFEE770470000E9
:1006400010B501200249087000F032F810BD00001A
:100650002400002010B5012002490870022000F09B
:1006600027F810BD2500002010B5012002490870B0
:10067000082000F01DF810BD2600002010B5012054
:1006800002490870102000F013F810BD2700002068
:1006900010B5202000F012F810B1202000F008F86A
:1006A000402000F00BF810B1402000F001F810BD20
:1006B0000149086070470000140401400146002011
:1006C0000022074B1B6803EA0102054B14331B6829
:1006D0000B4013B10AB1012000E000207047000078
:1006E00000040140002123498279002A3AD00A46B9
:1006F000126803689A430B461A600A1D1268036861
:100700009A430B1D1A60027911440A6803681A4360
:100710000A60184A0832126803689A43154B083376
:100720001A601A1D126803689A43124B0C331A6040
:100730004279102A0ED11A1F126803681A430D4B12
:1007400008331A601A1D126803681A43094B0C33E8
:100750001A600DE00749427911440A6803681A4398
:100760000A6005E0027911440A6803689A430A6046
:10077000704700000004014030B500228B071C0FB9
:100780000F2303FA04F20B4B8C1053F824309343DD
:10079000084C8D1044F8253023468C1053F8243033
:1007A0008C07240F00FA04F42343024C8D1044F804
:1007B000253030BD080001402DE9F04102460025FA
:1007C0000026002000230024002791F803C00CF02D
:1007D0000F0591F803C00CF0100CBCF1000F03D012
:1007E00091F802C04CEA050591F800C0BCF1000F79
:1007F00031D0146800202BE04FF0010C0CFA00F30C
:10080000B1F800C00CEA03069E4220D183004FF0ED
:100810000F0C0CFA03F7BC4305FA03FC4CEA040482
:1008200091F803C0BCF1280F06D14FF0010C0CFA6F
:1008300000FCC2F814C00AE091F803C0BCF1480FF4
:1008400005D14FF0010C0CFA00FCC2F810C0401C9E
:100850000828D1D31460B1F800C0BCF1FF0F34DD1B
:10086000546800202EE000F1080C4FF0010808FA4F
:100870000CF3B1F800C00CEA03069E4221D18300BC
:100880004FF00F0C0CFA03F7BC4305FA03FC4CEADB
:10089000040491F803C0BCF1280F05D100F1080C45
:1008A00008FA0CF8C2F8148091F803C0BCF1480FA4
:1008B00007D100F1080C4FF0010808FA0CF8C2F853
:1008C0001080401C0828CED35460BDE8F0810000A1
:1008D000F0B50A46002300240021002500F0004660
:1008E000B6F1004F02D11D4EF16901E01B4E716857
:1008F000C0F3034583B200F44016B6F5401F08D19B
:1009000021F07061154E766826F07066134F7E6098
:1009100012E000F48016B6F5801F06D1032606FA11
:1009200005F4A14341F0706106E0460D360103FA7B
:1009300006F6B14341F0706122B1460D360103FA6B
:1009400006F6314300F00046B6F1004F02D1034EE7
:10095000F16101E0014E7160F0BD00000000014056
:100960000246002093680B400BB1012000E00020FC
:100970007047416170470161704700BFFEE700BFEB
:10098000FEE7704770B5002100230F22C47804B33E
:10099000154C246804F4E064C4F5E064210AC1F154
:1009A0000403CA40447804FA03F1847814402143D4
:1009B00009010E4C0678A155047804F01F050124A6
:1009C000AC4005786D11AD0005F1E025C5F800419A
:1009D00009E0047804F01F050124AC40044D0678BA
:1009E000761145F8264070BD0CED00E000E400E013
:1009F00080E100E002490143024A116070470000B3
:100A00000000FA050CED00E029B1064AD269024364
:100A1000044BDA6104E0034AD2698243014BDA6194
:100A2000704700000010024029B1064A12690243D3
:100A3000044B1A6104E0034A12698243014B1A61B4
:100A4000704700000010024029B1064A9269024333
:100A5000044B9A6104E0034A92698243014B9A6114
:100A6000704700000010024029B1064AD2680243D4
:100A7000044BDA6004E0034AD2688243014BDA6037
:100A8000704700000010024030B500210022002411
:100A900000232D4D6D6805F00C0121B1042905D00E
:100AA000082923D105E0294D056022E0274D056086
:100AB0001FE0254D6D6805F47012234D6D6805F437
:100AC0008034022505EB92421CB9214D5543056047
:100AD0000BE01D4D6D6805F400351DB11C4D5543EF
:100AE000056002E0194D5543056002E0174D0560B1
:100AF00000BF00BF144D6D6805F0F0010909154DE8
:100B00006B5C0568DD4045600F4D6D6805F4E06184
:100B1000090A104D6B5C4568DD4085600A4D6D68C3
:100B200005F46051C90A0B4D6B5C4568DD40C5603A
:100B3000054D6D6805F44041890B074D6B5CC56838
:100B4000B5FBF3F5056130BD0010024000127A00DC
:100B500000093D001401002024010020704710B559
:100B600000F002F810BD00000CB5002001900090CC
:100B70003348006840F480303149086000BF304895
:100B8000006800F4003000900198401C019000982B
:100B900018B90198B0F5A06FF1D12948006800F4A8
:100BA000003010B10120009001E00020009000987A
:100BB000012843D12348006840F010002149086013
:100BC0000846006820F0030008600846006840F00E
:100BD000020008601A4840681949486008464068A1
:100BE00048600846406840F48060486008464068B5
:100BF00020F47C1048600846406840F4E8104860E3
:100C00000846006840F08070086000BF0C4800682B
:100C100000F000700028F9D00948406820F0030077
:100C2000074948600846406840F00200486000BF3D
:100C30000348406800F00C000828F9D10CBD000002
:100C4000001002400020024005480068401C044992
:100C5000086004480068401C0249086070470000B2
:100C6000280100203001002010B51348006840F032
:100C700001001149086008464068104908400E49C3
:100C80004860084600680E4908400B49086008465D
:100C9000006820F4802008600846406820F4FE00C8
:100CA00048604FF41F008860FFF759FF4FF0006065
:100CB0000449086010BD0000001002400000FFF869
:100CC000FFFFF6FE08ED00E010B540F225510D489B
:100CD00000F0A5F9A0B10B4800F0A2FA0A4908708B
:100CE000084600780A2808D00A7808490878411C84
:100CF000064B197006490A5402E0012005490870A4
:100D000010BD000000380140F4000020F500002074
:100D100060010020F600002010B50446E4B901216E
:100D20000520FFF791FE01218803FFF78DFE4FF4A8
:100D30000070184908801820C87003208870164871
:100D4000FFF73AFD4FF48060124908800420C87014
:100D50001148FFF731FD1BE0012C19D101210820BA
:100D6000FFF772FE01218803FFF76EFE402009495C
:100D700008801820C870032088700848FFF71CFD01
:100D80008020044908800420C8700448FFF714FD3F
:100D900010BD00005C01002000080140000C014073
:100DA00010B540F22551064800F039F930B1044839
:100DB000001D0088C1B2034800F070F910BD0000AA
:100DC000004400404401002010B5044601214804BD
:100DD000FFF71AFE022C1AD101210420FFF734FE7E
:100DE00001214804FFF710FE04201749088018204D
:100DF000C870032088701548FFF7DEFC08201249F0
:100E000008800420C8701148FFF7D6FC1BE0032CB3
:100E100019D101212020FFF717FE01214804FFF717
:100E2000F3FD2020084908801820C870032088702E
:100E30000748FFF7C1FC4020034908800420C87020
:100E40000348FFF7B9FC10BD5C0100200008014019
:100E50000014014010B540F22551064800F0DFF8BB
:100E600030B10448001D0088C1B2034800F016F9F3
:100E700010BD0000004800405001002010B504469D
:100E800001218804FFF7C0FD042C1AD1012108209C
:100E9000FFF7DAFD01218804FFF7D6FD200228497B
:100EA00008801820C870032088702648FFF784FC4B
:100EB0006002234908800420C8702248FFF77CFCA8
:100EC0003CE0052C1CD101211020FFF7BDFD0121C4
:100ED0008804FFF7B9FD4FF4806019490880182095
:100EE000C870032088701848FFF766FC4FF4006054
:100EF000134908800420C8701348FFF75DFC1DE00B
:100F0000062C1BD101212020FFF79EFD0121880422
:100F1000FFF79AFD4FF48070094908801820C870C7
:100F2000032088700948FFF747FC4FF4007004491C
:100F300008800420C8700548FFF73EFC10BD000083
:100F40005C010020000C0140001001400014014031
:100F500021B1828942F40052828104E082894DF6F7
:100F6000FF731A408281704710B5044620488442BE
:100F700009D101218803FFF777FD00214FF480405C
:100F8000FFF772FD32E01B48844209D10121480479
:100F9000FFF74AFD00214FF40030FFF745FD25E043
:100FA0001548844209D101218804FFF73DFD002145
:100FB0004FF48020FFF738FD18E01048844209D133
:100FC0000121C804FFF730FD00214FF40020FFF796
:100FD0002BFD0BE00A48844208D101210805FFF7E8
:100FE00023FD00214FF48010FFF71EFD10BD00000F
:100FF000003801400044004000480040004C0040E0
:101000000050004002460020B1F5007F00D100BF33
:1010100013880B400BB1012000E00020704770B531
:101020000246002400230025002040F66A16B14243
:1010300000D100BFC1F3421501F01F03012606FADB
:1010400003F3012D02D19689334006E0022D02D12F
:10105000168A334001E0968A33400C12012606FAC4
:1010600004F41688344013B10CB1012000E00020D4
:1010700070BD00000146064A914200D10020054A99
:10108000914200D10120044A914200D102207047D0
:1010900000380140004400400048004010B5C288BC
:1010A00083889A420FDA028983889A4201D100220A
:1010B00002814AB2048903681A550289521C0281CE
:1010C000C288521CC28010BDF0B503460024002621
:1010D0000025002040F66A17B94200D100BF18462B
:1010E000C1F3421401F01F06012707FA06F5012C8F
:1010F00001D10C3004E0022C01D1103000E014309A
:101100001AB107682F43076002E00768AF43076022
:10111000F0BD00002DE9F04786B005460E460024DC
:10112000A24600BFA1460027B08900B100BF2F46EC
:101130002C8A4CF6FF700440F08804432C82AC8962
:101140004EF6F3100440B088318908437189084392
:101150000443AC81AC8A4FF6FF400440B08904439D
:10116000AC8201A8FFF790FC1F48874202D1DDF84E
:1011700010A001E0DDF80CA0A88900F4004040B107
:101180000AEBCA0000EB0A1031684900B0FBF1F825
:1011900007E00AEBCA0000EB0A1031688900B0FBD7
:1011A000F1F86420B8FBF0F004012009642101FB90
:1011B0001089A88900F4004040B1322000EBC9003A
:1011C000B0FBF1F000F00700044308E0322000EB30
:1011D00009106421B0FBF1F000F00F0004432C81F2
:1011E00006B0BDE8F08700000038014013B50446A2
:1011F00000BF80212046FFF705FF0028F9D09DF8A9
:101200000400A0801CBD70B505460C4604E014F82F
:10121000011B2846FFF7EAFF20780028F7D170BDB0
:1012200001468888C0F308007047000070B586B09A
:1012300004460D46164602963348844212D128468B
:10124000FFF76AFD25208DF804000020ADF814009A
:101250000C20ADF812000020ADF81000ADF80E0023
:10126000ADF80C002948844212D12846FFF7ACFDA6
:1012700026208DF804000020ADF814000C20ADF8F5
:1012800012000020ADF81000ADF80E00ADF80C0013
:101290001F48844212D12846FFF7F0FD27208DF821
:1012A00004000020ADF814000C20ADF8120000205E
:1012B000ADF81000ADF80E00ADF80C00002120468E
:1012C000FFF746FE2046FFF74FFE02A92046FFF734
:1012D00021FF01212046FFF73BFE012240F225516C
:1012E0002046FFF7F1FE01208DF8070000208DF861
:1012F00005002046FFF7BEFE8DF8060001A8FFF7A7
:1013000041FB06B070BD00000038014000440040C1
:101310000048004000BFFEE730380A2801D2012013
:10132000704700207047000070B54FF44070FFF721
:1013300061FB144800684FF47A72B0FBF2F1B1F12E
:10134000807F00D31DE021F07F40401E4FF0E0225F
:10135000506150170F22002807DA13071D0E0A4BA1
:1013600000F00F04241F1D5503E013071C0E074B4C
:101370001C5400BF00204FF0E02290610720106154
:1013800000BF70BD0000002018ED00E000E400E0A8
:1013900030B5044600F03CFA051900BF00F038FAF9
:1013A000A842FBD330BD00002DE9FF470646894621
:1013B000924601210846FFF747FB6B48864203D15E
:1013C00004274FF0000828E06848864203D1082728
:1013D0004FF0010821E06648864203D110274FF004
:1013E00002081AE06348864203D120274FF0030821
:1013F00013E06148864203D140274FF004080CE017
:101400005E48864203D180274FF0050805E05C481E
:10141000864202D187154FF00608B9F5807F4BD080
:101420001ADCB9F1100F3BD00CDCB9F1010F2BD055
:10143000B9F1020F2BD0B9F1040F2BD0B9F1080F7D
:1014400052D12AE0B9F1200F2DD0B9F1400F2DD0A3
:10145000B9F1800F48D12CE0B9F5805F38D009DCB4
:10146000B9F5007F2BD0B9F5806F2BD0B9F5006F9F
:101470003AD12AE0B9F5005F2DD0B9F5804F2DD0D3
:10148000B9F5004F30D12CE0002406252DE00124D1
:1014900007252AE00224082527E00324092524E063
:1014A00004240A2521E0052417251EE0062417251B
:1014B0001BE00724172518E00824172515E0092448
:1014C000172512E00A2428250FE00B2428250CE01C
:1014D0000C24282509E00D24282506E00E242825C3
:1014E00003E00F24282500E000BF00BF012138469B
:1014F000FFF7AAFAADF80C9003208DF80E00BAF1B0
:101500000C0F03D148208DF80F0009E0BAF1080F45
:1015100003D128208DF80F0002E004208DF80F0081
:1015200003A93046FFF748F921464046FFF724F962
:10153000CDF8049001208DF80A0000208DF80800F5
:101540008DF809A001A8FFF7CDF88DF800500A200A
:101550008DF801008DF8024001208DF803006846E7
:10156000FFF710FABDE8FF8700080140000C0140BA
:10157000001001400014014000180140001C01400F
:101580000020014070B504460D46E1B20248FFF765
:101590002DFE204670BD0000003801401CB50AE059
:1015A00001204FF4FA7100231022CDE90010202110
:1015B0002B4800F023FA2B48007828B908212A4844
:1015C000FFF7CEF90028EBD00020264908700AE08A
:1015D00001204FF4FA7103460246CDE900100221C2
:1015E0001F4800F00BFA2148007828B901211E4855
:1015F000FFF7B6F90028EBD000201C4908700AE07C
:1016000001204FF4FA7103460422CDE900100821AD
:10161000134800F0F3F91648007828B9022112485F
:10162000FFF79EF90028EBD00020114908700AE06E
:1016300001204FF4FA5100234022CDE9001080210F
:10164000074800F0DBF90B48007828B9102106485C
:10165000FFF786F90028EBD00020064908701CBD72
:101660000008014026000020000C0140240000205A
:101670002500002027000020F8B504460D46164638
:101680001F462148844204D101210420FFF7DCF9E0
:101690002EE01E48844204D101210820FFF7D4F92E
:1016A00026E01B48844204D101211020FFF7CCF929
:1016B0001EE01848844204D101212020FFF7C4F91C
:1016C00016E01548844204D101214020FFF7BCF9FF
:1016D0000EE01248844204D101218020FFF7B4F9C2
:1016E00006E00F48844203D101218015FFF7ACF9D1
:1016F000ADF800508DF803608DF802706946204601
:10170000FFF75AF8F8BD000000080140000C014046
:10171000001001400014014000180140001C01406D
:1017200000200140FFF700FE4FF4165200212C4824
:10173000FFF77CFD0323102251022A48FFF79CFF8C
:101740000323102240F2FF112748FFF795FF4FF4C3
:1017500080712548FFF70DF9082201212348FFF782
:1017600023FE082202212148FFF71EFE00F070F838
:10177000082211461D48FFF717FE082210211B48BA
:10178000FFF712FE0C2220211848FFF70DFE0C2255
:1017900040211648FFF708FE0020154908704F2029
:1017A000144908704E2048704F20134908704E208D
:1017B00048700A20114908704F20114908704B20C9
:1017C000487014200F4908800FA10548FFF71BFD42
:1017D00000F05EF8FFF7E2FE00F038F900BFFEE728
:1017E000003801400010014000080140000C014099
:1017F000F6000020E6020020F00200201001002088
:10180000FA0200201201002068656C6C6F00000075
:1018100000B50B4800684FF47A72B0FBF2F04FF05D
:10182000E0229269801A4822B0FBF2F200F00AF836
:1018300000EB4003C3EBC01002EBC001084600BD43
:1018400000000020014800687047000028010020C7
:1018500008B501210820FFF7F7F801210846FFF736
:10186000F3F801210848FFF733F80820ADF800002D
:1018700003208DF8020048208DF8030069460348D4
:10188000FEF79AFF08BD000000023000000C014086
:1018900010B5002400BF09E000203749085537493A
:1018A00008553749085537490855641C0A2CF3DB9D
:1018B000002403E0002034490855641C322CF9DB75
:1018C000324A33A12C48FEF7B3FC324A30A12B48F0
:1018D000FEF7AEFC3048027830A12948FEF7A8FC9C
:1018E0002F4802882DA12748FEF7A2FC2D4A28A1E7
:1018F0002548FEF79DFC2CA12E48FEF7B1FD1E49A0
:101900002C48FEF7ADFD2CA12A48FEF7A9FD2BA11E
:101910002848FEF7A5FD19492648FEF7A1FD26A196
:101920002448FEF79DFD27A12248FEF799FD1449A2
:101930002048FEF795FD27A11E48FEF791FD26A140
:101940001C48FEF78DFD0F491A48FEF789FD21A1BD
:101950001848FEF785FD23A11648FEF781FD0A49C8
:101960001448FEF77DFD23A11248FEF779FD1149C9
:1019700021A0FEF751FC10BD8C0200209602002031
:10198000A0020020DC020020AA020020E6020020C3
:1019900025730000F00200201001002025640000E3
:1019A00012010020FA0200207B22486F6D65223A66
:1019B0002200000028020020222C000022496D672E
:1019C000223A2200224E756D62657244726F702257
:1019D0003A0000002C0000002244697374616E63B9
:1019E00065223A0022436865636B4572726F72220A
:1019F0003A220000227D000025730A002DE9F047FD
:101A00000746884614461D46DDE9089A002625B992
:101A100021463846FEF7ADFF03E021463846FEF783
:101A2000AAFF00260EE041463846FEF7A2FF0A2034
:101A3000FFF7AEFC41463846FEF79DFF4846FFF7EC
:101A4000A7FC761C5645EED3BDE8F0871CB54FF4D5
:101A500096504FF4FA6100230422CDE900100821CA
:101A60003A48FFF7CBFF3A48006800F596503849EE
:101A700008604FF496504FF4FA6101231022CDE92B
:101A8000001020213148FFF7B9FF3248006800F507
:101A90009650304908604FF4A07041F65831012348
:101AA0004022CDE9001080212848FFF7A7FF2A48EF
:101AB000006800F5A070284908604FF448604FF4B2
:101AC000FA6101231022CDE9001020211F48FFF701
:101AD00095FF2048006800F548601E4908604FF4F3
:101AE000A07041F6583100234022CDE9001080213A
:101AF0001648FFF783FF18480068A0F5A070164944
:101B000008604FF4FA50811000231022CDE9001034
:101B100020210E48FFF772FF0E480068A0F5C8505C
:101B20000C4908604FF496504FF4FA6101230422E7
:101B3000CDE9001008210548FFF760FF0448006860
:101B4000A0F59650024908601CBD00000008014045
:101B5000180000201C0000202000002004000008C5
:101B60000000000000000002000100001000000062
:101B7000901B000800000020600100002801000800
:101B8000D41B0008600100209008000084010008B8
:101B90001184A24A04000918010203040607080977
:101BA0000011DC55534152543120496E74657272F4
:101BB0007570742D0102030404000910060708095A
:101BC00002040608132C037320209A4C0C9A6C0C08
:041BD00041000000D0
:04000005080000ED02
:00000001FF
