:020000040800F2
:10000000E8080020F1010008511F0008491F0008FE
:100010004D1F0008F31B0008E52800080000000041
:100020000000000000000000000000002D2100087A
:100030001D1C00080000000007020008192200082B
:100040000B0200080B0200080B0200080B0200085C
:100050000B0200080B020008211C0008351C0008D8
:100060000B020008491C00085D1C00080B02000878
:100070000B0200080B0200080B0200080B0200082C
:100080000B0200080B0200080B0200080B0200081C
:100090000B0200080B0200080B020008711C00088C
:1000A0000B0200080B0200080B0200080B020008FC
:1000B0000B0200080B0200080B0200080B020008EC
:1000C0000B0200080B0200080B0200080B020008DC
:1000D0000B0200089922000871230008252400085B
:1000E0000B0200080B0200080B02000800F002F8E7
:1000F00000F06EF80AA090E8000C82448344AAF154
:100100000107DA4501D100F063F8AFF2090EBAE851
:100110000F0013F0010F18BFFB1A43F0010318473B
:100120007C3D00009C3D00000A444FF0000C10F89C
:10013000013B13F0070408BF10F8014B1D1108BF65
:1001400010F8015B641E05D010F8016B641E01F805
:10015000016BF9D113F0080F1EBF10F8014BAD1C55
:100160000C1B09D16D1E58BF01F801CBFAD505E073
:1001700014F8016B01F8016B6D1EF9D59142D6D3CD
:10018000704700000023002400250026103A28BFF5
:1001900078C1FBD8520728BF30C148BF0B607047F9
:1001A000002070471FB59DE8030000F0E7FA00F05B
:1001B0000BFE04000020002103F0FCFB401C6060EB
:1001C0000020002103F00CFCE0601FBD10B510BD45
:1001D00000F0A0FE1146FFF7E5FF02F065FF01F019
:1001E000EFF803B4FFF7F2FF03BC01F01FF90000C2
:1001F0000948804709480047FEE7FEE7FEE7FEE7BB
:10020000FEE7FEE7FEE7FEE7FEE7FEE704480549F6
:10021000054A064B7047000039220008ED0000082F
:10022000E8020020E8080020E8040020E80400209C
:1002300070B5064600F086FA056806F10B0020F05E
:100240000704B4429CBF002070BD2B466A68BAB157
:100250001068A04210D304F1080188423CBF5068E6
:10026000586007D35168101941601168091B01607B
:1002700058601460101D70BD13465268002AE7D103
:100280002146284600F066FA0028DED170BD70B520
:100290000446051F00F056FA0068002C14BF44689D
:1002A00070BD002C18BFAC423CBF20466468F8D338
:1002B00001680A18AA4218BF456003D12A6805469A
:1002C0001144016028684119A1421CBF6C6070BDD7
:1002D0006168696021680844286070BD70B50D468A
:1002E0000646041F00F02EFAD0F800C0C5B1E6B1F2
:1002F00005F10B0020F00703AB423CBF002070BDAE
:100300002068984238BFDCF8042013D3C11A0829AA
:100310002FD3E01840F8041B2360FFF7B8FF28E054
:100320003046FFF7B4FF002070BD2846BDE870409E
:10033000FFF77EBF002A18BFA2423CBF9446526816
:10034000F8D30119914216D111680844984212D38A
:10035000C11A08293CBF2060506808D35168E018D2
:100360004160216812681144C91A01602360CCF809
:100370000400201D70BD181FFFF75AFF050007D0AD
:1003800021680A1F211D00F037F9201DFFF77FFFAC
:10039000284670BD10B5044600F0CCF90068005D39
:1003A000C00602D504F1200010BD204610BD00009B
:1003B0000FB4044910B503AA029800F02DFA10BC3E
:1003C0005DF814FB1C0100202DE9F05F894604460E
:1003D0004FF0000ADFF824B1FB44C0F820A020460B
:1003E000E168884700287DD0252806D0D4E901217E
:1003F0009047206A401C2062F1E700255F462046B6
:10040000E16888472028064607DB312E05D2B81957
:1004100010F8200C08B10543F1E7A80701D525F035
:100420000405C4F81CA00027C4F818A02A2E09D07F
:10043000304602F0C0FA38B304EB8708303EC8F803
:10044000186019E059F8041B204604EB87029161FB
:10045000E1688847012F064618D1E069002820DAB4
:1004600025F020051DE0D8F8180000EB800006EB11
:1004700040003038C8F818002046E1688847064632
:1004800002F099FA0028EED1012F0AD02E2E08D1C1
:100490002046E16888477F1C0646022F45F020056C
:1004A000C4DBA069002803DA404245F00105A061E1
:1004B000E80701D025F01005A6B1A6F141001928E2
:1004C00002D8203645F400654A463146204625606C
:1004D0004D46FFF765FE60B1012807D0ED1D25F000
:1004E000070000E007E000F1080978E705F10409DA
:1004F00075E730467AE7206ABDE8F09F1A3A0000B7
:1005000030B505460B462A4613F8014B12F8010B8D
:1005100008B1A042F8D01CB1002802D06D1CF1E750
:10052000284630BD10B5431C02E010F8011B71B124
:100530008107FAD14FF0013202C88C1A8C4314EAB9
:10054000C211F9D0C01A0A0603D0C01E10BDC01ACD
:1005500010BD0A0401D0801E10BD0902FCD0401E4F
:1005600010BD40EA010370B59B072ED14FF0013654
:10057000042A2AD308C810C99D1B9D43121F15EADF
:10058000C61517D0D8B2E1B2401A50EA056110D1B1
:1005900098B2A1B2401A50EA05410AD123F07F4037
:1005A00024F07F41401A50EA052102D1180EA0EB39
:1005B000146070BDA342DBD018BA21BA884201D9B9
:1005C000012070BD4FF0FF3070BD0AB9002070BD32
:1005D00010F8013B11F8014B63B1A3420AD1521E3E
:1005E00008D010F8013B11F8014B1BB1A34201D117
:1005F000521EEDD1181B70BD10B5203AC0F00B8013
:10060000B1E81850203AA0E81850B1E81850A0E816
:100610001850BFF4F5AF5FEA027C24BFB1E8185070
:10062000A0E8185044BF18C918C0BDE810405FEAE0
:10063000827C24BF51F8043B40F8043B08BF70475C
:10064000D20728BF31F8023B48BF11F8012B28BF61
:1006500020F8023B48BF00F8012B70474FF0000222
:1006600000B5134694469646203922BFA0E80C50A8
:10067000A0E80C50B1F12001BFF4F7AF090728BF83
:10068000A0E80C5048BF0CC05DF804EB890028BFFF
:1006900040F8042B08BF704748BF20F8022B11F028
:1006A000804F18BF00F8012B704700004FF0013C4D
:1006B00050F8042B51F8043B9A4221D1A2EB0C03D1
:1006C000934313EACC1317D150F8042B51F8043B91
:1006D0009A4215D1A2EB0C03934313EACC130BD12E
:1006E00050F8042B51F8043B9A4209D1A2EB0C03B9
:1006F000934313EACC13DBD04FF00000704700BFE8
:10070000D01A01BAB1FA81F101F0180122FA01F010
:10071000CB40C1F12001DBB2C0B2C01A2CFA01F308
:10072000D11A914311EAC311E6D17047704770475F
:100730007047000010B500F047FB001D10BD00BF62
:1007400075320000004870478C02002070477047E7
:100750007047704738B504460A4600206946AFF333
:100760000080002808BF38BD02460099204600F0EE
:1007700033FB012038BD012000F0C4BBF8B5AFF356
:100780000080054600200C46102000BF0646A81930
:10079000A0420DD9324669460020AFF30080070021
:1007A00008BF00F0AFFB0098A04218BF0546C4196F
:1007B000FFF7C8FF05600746F01D20F00700461947
:1007C000284600F00AF8B44208BFF8BDA21B314623
:1007D0003868BDE8F84000F0FFBA00210160C0E9C8
:1007E000011070471020704701694A1C02610878A7
:1007F000704700B58FB0CDE9013100210591054961
:100800007944CDE9031011466846FFF7DDFD0FB0CE
:1008100000BD0000E5FFFFFF074B70B50D467B44B0
:10082000FFF7E7FF0446284600F068FB10B14FF0E1
:10083000FF3070BD204670BD9F2600002DE9FF4FA0
:10084000064689B00878FF2806D0491C2D2805D017
:1008500000244FF0000908E000200CE00124F8E734
:1008600009EB8903491C00EB43090878FF28F7D1FD
:1008700014B1C9F100008146107800252C46AA4623
:1008800029462D2801D02B2804D1521C2D2813D005
:10089000002082468B461078FF280FD04FF0000CC6
:1008A0000A21521CA5FB017804FB018105FB0C11F8
:1008B000C5194BEB0104EEE70120EAE700210846E9
:1008C0004FF00000BAF1000F02D000EB80004008AA
:1008D000C0F38158B8F1010F01DD4FF0FF380C98DB
:1008E00009EB000755EA040009D04FF0020917F59B
:1008F000FA7F0BDA4FEACA70C6E900B012E04FEA9D
:10090000CA70C6E900B00DB0BDE8F08FB7F5FA7F48
:100910000DDDF0487844D0E90010C6E9001040EA47
:10092000CA70706000F054FAC0F80090EBE7391E0E
:1009300002DAC8F1000200E0424600DA794206A875
:1009400000F06EFA06AB93E8070003AB83E80700FC
:1009500044F23E005BEA04010090584604D144F2A0
:100960001E012C465D460091210C0904014306D16D
:100970000099240444EA15442D041039009104F030
:100980007F41014306D10099240244EA15642D02F7
:100990000839009104F07041014306D10099240107
:1009A00044EA15742D01091F009104F040410143F0
:1009B00006D10099A40044EA9574AD00891E009107
:1009C00004F00041084304D100986D196441401EB1
:1009D000009042466846002FCDE9014503A902DD9B
:1009E00000F0D1FF01E000F0A6FFBAF1000F0446CD
:1009F0000D4601D084F0004440F2FF7724F000401F
:100A0000284303D0C4F30A50B84212D100F0E0F9F1
:100A1000C0F80090C4F30A50B8420AD1AE487844F6
:100A2000D0E90010C6E9001004F0004108437060EE
:100A300069E7C6E9005466E72DE9FF4F1F464FF00E
:100A4000000A4FF0FF38454691B0D7E90146CDF88E
:100A50003CA000F0B9F9C0680168405C1090B96929
:100A600012986D1C8847396A814688470028F6D15C
:100A7000B9F1FF3F0AD0002E24F4D06411DDB9F1A2
:100A80002B0F08D0B9F12D0F0BD102E0404615B065
:100A90003AE744F48064B96912986D1C8847761E61
:100AA0008146600504A901D52D2000E02B20002EF1
:100AB00001F1010B0DF130088DF810003FDDB9F1A7
:100AC000690F08D0B9F1490F05D0B9F16E0F02D006
:100AD000B9F14E0F1CD13B4601A8009580E85002A9
:100AE000DDE912126FF0020003F06BF9C11CCED1E8
:100AF0000EE0B96912986D1C884781461398761EDE
:100B000044F4007405600F98401C002E0F9016DD11
:100B1000B9F1300FEDD0B9F1780F02D0B9F1580F1B
:100B20000DD10F9801280AD13B46CDE90054DDE9EB
:100B30001212001F029603F042F9C11CA7D11099AE
:100B400089453ED144F0800406E01399681CAAF15F
:100B5000010A44F400740860B9696D1C1298761E8D
:100B6000884730288146F0D02BE01099894505D17F
:100B7000200603D4761E44F0800418E0484601F0B5
:100B80001AFF08B3761E0DF123018B4544F400745F
:100B900008D2A9F130000BF8010B200607D5AAF105
:100BA000010003E0200602D40AF101008246A005FC
:100BB00002D51399681C0860B96912986D1C8847A2
:100BC0008146002ED1DC53E0002E51DDB9F1650FD6
:100BD00002D0B9F1450F4BD1A00549D5B9696D1CBB
:100BE0001298761E24F440748847002E81460CDD4E
:100BF0002B2804D0B9F12D0F07D144F48074B969C2
:100C000012986D1C8847761E8146E00501D52D217E
:100C100000E02B2108F8011BCDF8008021E0761EB2
:100C20000DF13901884544F400740CD2A9F130006B
:100C300010F0FF0088F8000002D10099884509D91A
:100C400008F1010806E0E00501D5244801E042F280
:100C50000F708246B96912986D1C884781461398B7
:100C60000560002E04DD484601F0A5FE0028D6D11F
:100C7000F96912988847FF2053468BF8000088F8DE
:100C8000000000200A900B9004AA0CA90AA8FFF704
:100C9000D5FDA00502D46FF00100F8E614F0240F92
:100CA0000AD0E00714D13868DDE90A12031D3B6061
:100CB0000068C0E900120BE00AA9684601F024FEB2
:100CC000E00705D13868009A011D396000680260AC
:100CD0002846DCE6A43500009A340000F1D8FFFF76
:100CE000426842B1016811F8013B23B1521EC0E9CC
:100CF0000012184670470121C160881E7047426883
:100D00005AB1C368016843B983688B4205D0491E54
:100D1000521CC0E90012002070474FF0FF307047AE
:100D20000FB4002300B589B00CA900910B99CB60DA
:100D3000204B7B440693204B7B44079304236FF0A6
:100D40000042CDE901321D4A7A446B4608920246C0
:100D5000002003F032F809B05DF814FB70B50646C8
:100D60004FF0FF3015460C46324686B00091CDE973
:100D7000010169460020049004A8FFF7D1FF034653
:100D80000498211825B108B10A4600E022462A60DD
:100D900000280DD0002B02DD0098884208D0324692
:100DA000081B69460094CDE9010404A8FFF7B8FFC9
:100DB00006B070BDABFFFFFFC3FFFFFFC100000027
:100DC000004870478402002000487047A4020020B9
:100DD0000048704784020020034640688C46002883
:100DE00018BF88423CBF03464068F8D318681844CF
:100DF000884207D00CF1030020F00700001D411AC3
:100E0000521A0146081D0A60FFF741BA10B50446A0
:100E1000FFF790FC0068005D00F0010010BD0000CD
:100E20002DE9F047814616468AB0334878440DC80C
:100E30008DE80D0030487844801C03AC0DC884E870
:100E40000D0041F69B300844372190FBF1F290FBF6
:100E5000F1F5A5F1800501FB12041B3C02D56442AB
:100E6000012000E00020DFF890A080460027FA442F
:100E7000AAF1BE0A0DE0E00709D03246684607EB4A
:100E800047010AEB810100F06AFD8DE8070064105C
:100E90007F1C002CEFD1184F7F44AC3F18E0E807CF
:100EA00014D007EB04100DF1180A90E80E008AE840
:100EB0000E00C068F04201D198190890324606A988
:100EC00003A800F04CFD03AB83E807006D10641C21
:100ED000002DE4D132466946B8F1000F03A802D0D4
:100EE00000F015FD01E000F03AFDC9E90001C9F884
:100EF00008200AB0BDE8F08754300000007B00F005
:100F00008000704710B500F069FABDE8104000F0AD
:100F100060BA70477546FFF753FFAE460500694655
:100F2000534620F00700854618B020B5FFF76EF94C
:100F3000BDE820404FF000064FF000074FF00008DA
:100F40004FF0000B21F00701AC46ACE8C009ACE85B
:100F5000C009ACE8C009ACE8C0098D46704710B5BF
:100F6000FFF736FF006810BD10B50446FFF730FFED
:100F7000046010BD2DE9FF4F1F464FF03C0987B0BC
:100F80004FF00042DDE9141001F10108DDF858A02E
:100F900002EA405003900020049083460546044630
:100FA0000590B969461E08988847AAF1010A02907F
:100FB000BAF1000F37DD02982E2815D0102100F06D
:100FC0004EFA00282ADB4FF0010B0499014316D09A
:100FD000B9F1000F0BDB4A46C11700F02DFA0543AB
:100FE0000C43A9F1040905E00120059007E008B1D0
:100FF00045F0010501200490059800B9361DB96936
:10100000089808F101088847BBF1000FAAF1010A0E
:101010000290CDD00999C1F80080C9E702987028E4
:1010200008D0502806D0F96908988847BBF1000F0E
:1010300014D04FE0002002900120BBF1000F04907B
:1010400009D0B969089808F101088847AAF101098F
:10105000B9F1000F07DCF969089888476FF00100C3
:101060000BB0BDE8F08F2B2804D02D280CD14FF009
:10107000FF300490B969089808F101088847A9F180
:101080000109B9F1000FE6DD411CE4D00A2100F0AE
:10109000E6F90028DFDB029908F1010801EB810184
:1010A00000EB41000290B969089888470A2100F0D6
:1010B000D6F9099AA9F10109B9F1000FC2F8008027
:1010C00001DD0028E7DAF969089888470499029851
:1010D00000FB016655EA040004D004F04041090019
:1010E00002D006E0039898E0A40044EA9574AD00AD
:1010F000B61E04F00041080002D16D196441761E4D
:10110000159810F0240F03D04FF00B095C4803E052
:101110004FF028096FF07D008246564507DAAAEBAA
:1011200006018944B9F1410F01DD4FF04109012069
:101130000021A9F1010200F07FF9024628400B4688
:101140002140084301D0012100E00021501E0291FE
:1011500043F1FF3128402140084301D0012000E045
:1011600000200299834651EA0B014FD00021084626
:101170004FF00000039900F4400039B100EB80000B
:101180004FF4400100EBD07001EA600080150128A7
:1011900002DD4FF0FF3000E013D0401C36D0029843
:1011A00060B3BBF1000F0CD14A460120002100F0D2
:1011B00043F928402140084301D0012000E00020ED
:1011C000E0B101204A46002100F036F903464019FB
:1011D0000A4661412D1A8C4111D3B9F1400F09DD46
:1011E000159810F0240F02D0AAF1340603E0AAF1FA
:1011F000170600E0761C00254FF0004406E05B1E59
:1012000042F1FF3220EA030521EA0204CAF101009B
:10121000B04206DA1B490398084301900020009071
:101220000EE0039AC4F3D321E80A0A43164940EAC0
:1012300044500A433146CDE90002684601F0B0FB54
:10124000159810F0240F0BD01598C00715D13868E9
:10125000DDE90012031D3B600068C0E900120CE0EC
:1012600002A8694601F050FB1598C00705D13868FF
:10127000029A011D3960006802604046F0E60000F5
:1012800002FCFFFF0000F07F0000F03F2DE9FF4F60
:1012900092461D4685B04FF00041DDE9124BDDE975
:1012A00014727F1E01EA4B50414940F0FF4940EA69
:1012B0000108002122F020004928049102D04E2884
:1012C00028D04CE03BA0012607C88DE80700A9699B
:1012D0000698641C88477F1E014606D41DF8060048
:1012E00018B121F0200181420BD0E96906988847A6
:1012F000032E34D0082E32D06FF0010009B0BDE8C3
:10130000F08F761C032E01D0082EE0D1601CCAF8A5
:101310000000DCE7A9690698641C88477F1E2AD470
:1013200020F02000412826D1A9690698641C88472E
:101330007F1E20D420F020004E281CD1A9690698D9
:10134000641C88477F1E48F4002849F48009CAF8C5
:10135000004001D4282806D0E969069888475FEA4A
:10136000CB7012D022E0A9690698641C88477F1EC2
:1013700001D4002803DAE96906988847BCE72928E0
:10138000F1D1641CCAF80040E9E71BF0240F07D034
:1013900028680499031D2B600068C0E9001805E067
:1013A0002868021D2A600068C0F800902046A5E762
:1013B0000000F07F494E46494E4954590000000054
:1013C00010B50446AFF300802046BDE81040FEF79C
:1013D00008BF002801D000F029B8704710B50128D7
:1013E00005D0002103A000F048F8012010BD09A19C
:1013F000F8E7000053494752544D454D3A204F7588
:1014000074206F662068656170206D656D6F7279FC
:10141000000000003A2048656170206D656D6F72B4
:101420007920636F727275707465640001491820C9
:10143000ABBEFEE726000200B2F120030AD5C2F1DE
:10144000200301FA02F120FA03F300FA02F041EA64
:101450000301704700FA03F14FF0000070473A288B
:1014600000D2303820F02002412A01D3A2F1370007
:10147000884201D34FF0FF30704770B505460C46E7
:101480000A2000E06D1C00F011F835B12878002822
:10149000F8D102E0641C00F009F814B120780028AB
:1014A000F8D1BDE870400A20AFF3008008B5694666
:1014B0008DF800000320ABBE08BD20F07F4C80EA11
:1014C000030023F07F47ACEB070303F57C5300F0E8
:1014D000004003F1FF032DE980494FEA154B09B4A1
:1014E0004FEA144325EA0B4E24EA03480FF2042680
:1014F00006EB132749083E785FEA320203FB0667D2
:10150000C7F5000707FB06F64FEA54374FEAD64601
:1015100006F1020607FB066CCCF1005C4FEA1C47A3
:101520002CEA074C07FB06F40CFB06F504EB15460A
:101530004FEA961634BF00204FF000404FEAD137F3
:1015400006FB07FC4FEA1C4C0CFB0BF7D21B03FB02
:101550000CF761EB07010CFB0EF7B0EB074072EBE9
:1015600017420CFB08F734BFA2EB0742B2EB07426D
:1015700061EB17414FEA0C444FEA910706FB07FC69
:101580004FEA1C4C0CFB0BF7B0EBC74072EB573229
:1015900003FB0CF734BFA2EBC742B2EBC74261EBCF
:1015A00057310CFB0EF7B0EBC70072EB57720CFB18
:1015B00008F734BFA2EBC702B2EBC70261EB577169
:1015C000039F4FEA816141EA921104EBCC044FEA98
:1015D000D1374FEA826206FB07FC42EA90124FEADB
:1015E00080604FEA1C4C0CFB0BF7D21B03FB0CF783
:1015F00061EB07010CFB0EF7B0EB074072EB1742F3
:101600000CFB08F734BFA2EB0742B2EB074261EBD9
:1016100017414FEA8C554FEA910704EB9C2406FBD7
:1016200007FC4FEA1C4C0CFB0BF7B0EBC74072EB0E
:10163000573203FB0CF734BFA2EBC742B2EBC742F1
:1016400061EB57310CFB0EF7B0EBC70072EB577232
:101650000CFB08F734BFA2EBC702B2EBC70261EB89
:10166000577115EB4C254FEA816141EA92114FEA1F
:1016700082624FEAD13742EA901206FB07FC44F13E
:1016800000044FEA80604FEA1C4C0CFB0BF7D21BA6
:1016900003FB0CF761EB07010CFB0EF7B0EB074007
:1016A00072EB17420CFB08F734BFA2EB0742B2EB18
:1016B000074261EB174115EB1C154FEA813141EAF6
:1016C00092414FEA823242EA90424FEA80304FEA3A
:1016D0000C7644F1000448EA03434EEA0B484FF00D
:1016E000000EB2EB080C71EB030724BF62463946CB
:1016F0004EEB0E0E4FF0000B0018524149414BEBE0
:101700000B0BB2EB080C71EB03077BF1000B24BF52
:10171000624639464EEB0E0E4FF0000B0018524158
:1017200049414BEB0B0BB2EB080C71EB03077BF160
:10173000000B24BF624639464EEB0E0E51EA0207FB
:1017400018BF46F0010616EB0E7655F1000254F173
:10175000000103D5BDE88901BDE80088BDE8890125
:10176000BDE80048B619524141EB0101A3F1010364
:10177000704780807F7E7D7C7B7A797877767675FE
:101780007473727171706F6E6E6D6C6C6B6A6A6976
:101790006868676666656464636362616160605F10
:1017A0005F5E5E5D5D5C5C5B5B5A5A595958585789
:1017B00057565655555554545353525252515150F1
:1017C00050504F4F4F4E4E4D4D4D4C4C4C4B4B4B44
:1017D0004A4A4A494949484848474747474646468A
:1017E00045454544444444434343434242424241C5
:1017F0004141000046EA0646A3F570534FEA1646FB
:1018000046EA42564FEAD22242EA415210B54FEA26
:10181000D121A3F1010300F017F820F0004000F1FE
:10182000010C00F0004701EB00501146BCF5006FC1
:1018300040EA070000D210BD02484FF0000140EA24
:10184000070010BD0000F07F002B26D4770021D0C8
:101850001CB54FEA370703B44FF010004FF01001EA
:101860004FF000000FBCBDE810400BF1010BBBF1C5
:10187000010F08BF5FEA170722BF12F1010211F141
:1018800001014FF0004143F1000300F0004043EA42
:1018900000007047F9D35708DAE746EA064613F125
:1018A000400F4FEA16461FDD13F1200FDFBF16432E
:1018B0000A46002120335B42C8D0C3F1200746EA24
:1018C000064602FA07F74FEA164646EA0706C3F14C
:1018D000200722FA03F201FA07F721FA03F14FF089
:1018E000000342EA0702B1E746EA020646EA064674
:1018F0004FEA164646EA0106BCBF46EA0646360CE3
:101900004FF000034FF000024FF000019EE72DE979
:10191000C048934630B491E8380007C831EA400C1B
:1019200048BF34EA430C03D5FFF7C7FDFFF78CFF30
:10193000F0BCBDE800882DE9C048934630B491E87A
:10194000380007C831EA400C48BF34EA430C03D5DD
:10195000FFF7B3FDFFF74EFFF0BCBDE800882DE9AF
:10196000C048934630B491E8380007C810F0804F63
:1019700008BF13F0804F03D100F019F8FFF764FFA0
:10198000F0BCBDE800882DE9C048934630B491E82A
:10199000380007C810F0804F08BF13F0804F03D104
:1019A00000F005F8FFF726FFF0BCBDE8008820F046
:1019B0007F4780EA030023F07F4C07EB0C03A3F57D
:1019C0007C5300F00040A3F1FE0392F0000F00F002
:1019D000B38095F0000F00F077802DE901494FEAC0
:1019E00011404FEA144621EA004800FB06FC24EAB5
:1019F000064708FB06F607FB08F800FB07F718EB9D
:101A000006484CEB164C4FEA124B18EB07484FEACE
:101A100015464CEB174022EA0B4E0BFB06FC25EA61
:101A200006470EFB06F607FB0EFE0BFB07F71EEB49
:101A3000064E4CEB164C4FF000061EEB074E4CEBDF
:101A4000174B18EB0B0840F1000018EB0E0B58EB8E
:101A5000000840F100008F1A4FF000013CBFC9435D
:101A6000661B14BFB5EB040C00213CBFC943F61B39
:101A70004FEA17444EEA8E0E27EA04454FEA1C4708
:101A800004FB07622CEA074C05FB07F70CFB05F685
:101A900004FB0CFC16EB074642EB174216EB0C4618
:101AA00042EB1C421BEB060658EB0202414146EAA0
:101AB0009E0601D5BDE80189B619524141EB0101ED
:101AC000A3F10103BDE801894FEA14454FEA11472C
:101AD00024EA054621EA074C05FB07F406FB07F755
:101AE0000CFB06F105FB0CFC11EB074144EB174422
:101AF0004FEA124711EB0C4144EB1C4422EA074C1D
:101B000005FB07F206FB07F70CFB06F605FB0CFCD2
:101B100016EB074642EB174216EB0C4642EB1C4510
:101B20006A1854F1000148BF7047B619524141EBA1
:101B30000101A3F10103704795F0000F37D04FEA80
:101B400011424FEA144721EA024624EA074C02FBFD
:101B500007F106FB07F70CFB06F402FB0CFC14EB89
:101B6000074441EB17414FEA154714EB0C4441EB96
:101B70001C4125EA074C02FB07F506FB07F70CFBA7
:101B800006F602FB0CFC16EB074645EB174516EB79
:101B90000C4645EB1C42121951F1000148BF704739
:101BA000B619524141EB0101A3F1010370474FEA1D
:101BB00014454FEA114724EA054621EA074C05FB84
:101BC00007F106FB07F70CFB06F24FF0000605FBDA
:101BD0000CFC12EB074241EB174112EB0C4251EBAC
:101BE0001C4148BF7047921841EB0101A3F101036A
:101BF000704700BFFEE70000002000BF04E00021A6
:101C0000044A1154411C88B2C828F8DB0021024A5A
:101C1000117070475C010020F50000207047000043
:101C200010B501200249087000F032F810BD000024
:101C30002400002010B5012002490870022000F0A5
:101C400027F810BD2500002010B5012002490870BA
:101C5000082000F01DF810BD2600002010B501205E
:101C600002490870102000F013F810BD2700002072
:101C700010B5202000F012F810B1202000F008F874
:101C8000402000F00BF810B1402000F001F810BD2A
:101C9000014908607047000014040140014600201B
:101CA0000022074B1B6803EA0102054B14331B6833
:101CB0000B4013B10AB1012000E000207047000082
:101CC00000040140002123498279002A3AD00A46C3
:101CD000126803689A430B461A600A1D126803686B
:101CE0009A430B1D1A60027911440A6803681A436B
:101CF0000A60184A0832126803689A43154B083381
:101D00001A601A1D126803689A43124B0C331A604A
:101D10004279102A0ED11A1F126803681A430D4B1C
:101D200008331A601A1D126803681A43094B0C33F2
:101D30001A600DE00749427911440A6803681A43A2
:101D40000A6005E0027911440A6803689A430A6050
:101D5000704700000004014030B500228B071C0FC3
:101D60000F2303FA04F20B4B8C1053F824309343E7
:101D7000084C8D1044F8253023468C1053F824303D
:101D80008C07240F00FA04F42343024C8D1044F80E
:101D9000253030BD080001402DE9F0410246002504
:101DA0000026002000230024002791F803C00CF037
:101DB0000F0591F803C00CF0100CBCF1000F03D01C
:101DC00091F802C04CEA050591F800C0BCF1000F83
:101DD00031D0146800202BE04FF0010C0CFA00F316
:101DE000B1F800C00CEA03069E4220D183004FF0F8
:101DF0000F0C0CFA03F7BC4305FA03FC4CEA04048D
:101E000091F803C0BCF1280F06D14FF0010C0CFA79
:101E100000FCC2F814C00AE091F803C0BCF1480FFE
:101E200005D14FF0010C0CFA00FCC2F810C0401CA8
:101E30000828D1D31460B1F800C0BCF1FF0F34DD25
:101E4000546800202EE000F1080C4FF0010808FA59
:101E50000CF3B1F800C00CEA03069E4221D18300C6
:101E60004FF00F0C0CFA03F7BC4305FA03FC4CEAE5
:101E7000040491F803C0BCF1280F05D100F1080C4F
:101E800008FA0CF8C2F8148091F803C0BCF1480FAE
:101E900007D100F1080C4FF0010808FA0CF8C2F85D
:101EA0001080401C0828CED35460BDE8F0810000AB
:101EB000F0B50A46002300240021002500F000466A
:101EC000B6F1004F02D11D4EF16901E01B4E716861
:101ED000C0F3034583B200F44016B6F5401F08D1A5
:101EE00021F07061154E766826F07066134F7E60A3
:101EF00012E000F48016B6F5801F06D1032606FA1C
:101F000005F4A14341F0706106E0460D360103FA85
:101F100006F6B14341F0706122B1460D360103FA75
:101F200006F6314300F00046B6F1004F02D1034EF1
:101F3000F16101E0014E7160F0BD00000000014060
:101F4000416170470161704700BFFEE700BFFEE7D7
:101F50007047000070B5002100230F22C47804B33D
:101F6000154C246804F4E064C4F5E064210AC1F16E
:101F70000403CA40447804FA03F1847814402143EE
:101F800009010E4C0678A155047804F01F050124C0
:101F9000AC4005786D11AD0005F1E025C5F80041B4
:101FA00009E0047804F01F050124AC40044D0678D4
:101FB000761145F8264070BD0CED00E000E400E02D
:101FC00080E100E002490143024A116070470000CD
:101FD0000000FA050CED00E029B1064AD26902437F
:101FE000044BDA6104E0034AD2698243014BDA61AF
:101FF000704700000010024029B1064A12690243EE
:10200000044B1A6104E0034A12698243014B1A61CE
:10201000704700000010024029B1064A926902434D
:10202000044B9A6104E0034A92698243014B9A612E
:10203000704700000010024029B1064AD2680243EE
:10204000044BDA6004E0034AD2688243014BDA6051
:10205000704700000010024030B50021002200242B
:1020600000232D4D6D6805F00C0121B1042905D028
:10207000082923D105E0294D056022E0274D0560A0
:102080001FE0254D6D6805F47012234D6D6805F451
:102090008034022505EB92421CB9214D5543056061
:1020A0000BE01D4D6D6805F400351DB11C4D554309
:1020B000056002E0194D5543056002E0174D0560CB
:1020C00000BF00BF144D6D6805F0F0010909154D02
:1020D0006B5C0568DD4045600F4D6D6805F4E0619F
:1020E000090A104D6B5C4568DD4085600A4D6D68DE
:1020F00005F46051C90A0B4D6B5C4568DD40C56055
:10210000054D6D6805F44041890B074D6B5CC56852
:10211000B5FBF3F5056130BD0010024000127A00F6
:1021200000093D00FC0000200C010020704710B5A4
:1021300000F002F810BD00000CB5002001900090E6
:102140003348006840F480303149086000BF3048AF
:10215000006800F4003000900198401C0190009845
:1021600018B90198B0F5A06FF1D12948006800F4C2
:10217000003010B10120009001E000200090009894
:10218000012843D12348006840F01000214908602D
:102190000846006820F0030008600846006840F028
:1021A000020008601A4840681949486008464068BB
:1021B00048600846406840F48060486008464068CF
:1021C00020F47C1048600846406840F4E8104860FD
:1021D0000846006840F08070086000BF0C48006846
:1021E00000F000700028F9D00948406820F0030092
:1021F000074948600846406840F00200486000BF58
:102200000348406800F00C000828F9D10CBD00001C
:10221000001002400020024005480068401C0449AC
:10222000086004480068401C0249086070470000CC
:10223000100100201801002010B51348006840F07C
:1022400001001149086008464068104908400E49DD
:102250004860084600680E4908400B490860084677
:10226000006820F4802008600846406820F4FE00E2
:1022700048604FF41F008860FFF759FF4FF000607F
:102280000449086010BD0000001002400000FFF883
:10229000FFFFF6FE08ED00E010B540F225510D48B5
:1022A00000F0A5F9A0B10B4800F0A2FA0A490870A5
:1022B000084600780A2808D00A7808490878411C9E
:1022C000064B197006490A5402E0012005490870BE
:1022D00010BD000000380140F4000020F50000208F
:1022E0005C010020F600002010B50446E4B901218D
:1022F0000520FFF791FE01218803FFF78DFE4FF4C3
:102300000070184908801820C8700320887016488B
:10231000FFF742FD4FF48060124908800420C87026
:102320001148FFF739FD1BE0012C19D101210820CC
:10233000FFF772FE01218803FFF76EFE4020094976
:1023400008801820C870032088700848FFF724FD13
:102350008020044908800420C8700448FFF71CFD51
:1023600010BD00004401002000080140000C0140A5
:1023700010B540F22551064800F039F930B1044853
:10238000001D0088C1B2034800F070F910BD0000C4
:10239000004400402C01002010B5044601214804EF
:1023A000FFF71AFE022C1AD101210420FFF734FE98
:1023B00001214804FFF710FE042017490880182067
:1023C000C870032088701548FFF7E6FC0820124902
:1023D00008800420C8701148FFF7DEFC1BE0032CC6
:1023E00019D101212020FFF717FE01214804FFF732
:1023F000F3FD2020084908801820C8700320887049
:102400000748FFF7C9FC4020034908800420C87032
:102410000348FFF7C1FC10BD440100200008014043
:102420000014014010B540F22551064800F0DFF8D5
:1024300030B10448001D0088C1B2034800F016F90D
:1024400010BD0000004800403801002010B50446CF
:1024500001218804FFF7C0FD042C1AD101210820B6
:10246000FFF7DAFD01218804FFF7D6FD2002284995
:1024700008801820C870032088702648FFF78CFC5D
:102480006002234908800420C8702248FFF784FCBA
:102490003CE0052C1CD101211020FFF7BDFD0121DE
:1024A0008804FFF7B9FD4FF48060194908801820AF
:1024B000C870032088701848FFF76EFC4FF4006066
:1024C000134908800420C8701348FFF765FC1DE01D
:1024D000062C1BD101212020FFF79EFD012188043D
:1024E000FFF79AFD4FF48070094908801820C870E2
:1024F000032088700948FFF74FFC4FF4007004492F
:1025000008800420C8700548FFF746FC10BD000095
:1025100044010020000C0140001001400014014063
:1025200021B1828942F40052828104E082894DF611
:10253000FF731A408281704710B5044620488442D8
:1025400009D101218803FFF777FD00214FF4804076
:10255000FFF772FD32E01B48844209D10121480493
:10256000FFF74AFD00214FF40030FFF745FD25E05D
:102570001548844209D101218804FFF73DFD00215F
:102580004FF48020FFF738FD18E01048844209D14D
:102590000121C804FFF730FD00214FF40020FFF7B0
:1025A0002BFD0BE00A48844208D101210805FFF702
:1025B00023FD00214FF48010FFF71EFD10BD000029
:1025C000003801400044004000480040004C0040FA
:1025D0000050004002460020B1F5007F00D100BF4E
:1025E00013880B400BB1012000E00020704770B54C
:1025F0000246002400230025002040F66A16B1425E
:1026000000D100BFC1F3421501F01F03012606FAF5
:1026100003F3012D02D19689334006E0022D02D149
:10262000168A334001E0968A33400C12012606FADE
:1026300004F41688344013B10CB1012000E00020EE
:1026400070BD00000146064A914200D10020054AB3
:10265000914200D10120044A914200D102207047EA
:1026600000380140004400400048004010B5C288D6
:1026700083889A420FDA028983889A4201D1002224
:1026800002814AB2048903681A550289521C0281E8
:10269000C288521CC28010BDF0B50346002400263B
:1026A0000025002040F66A17B94200D100BF184645
:1026B000C1F3421401F01F06012707FA06F5012CA9
:1026C00001D10C3004E0022C01D1103000E01430B4
:1026D0001AB107682F43076002E00768AF4307603D
:1026E000F0BD00002DE9F04786B005460E460024F7
:1026F000A24600BFA1460027B08900B100BF2F4607
:102700002C8A4CF6FF700440F08804432C82AC897C
:102710004EF6F3100440B0883189084371890843AC
:102720000443AC81AC8A4FF6FF400440B0890443B7
:10273000AC8201A8FFF790FC1F48874202D1DDF868
:1027400010A001E0DDF80CA0A88900F4004040B121
:102750000AEBCA0000EB0A1031684900B0FBF1F83F
:1027600007E00AEBCA0000EB0A1031688900B0FBF1
:10277000F1F86420B8FBF0F004012009642101FBAA
:102780001089A88900F4004040B1322000EBC90054
:10279000B0FBF1F000F00700044308E0322000EB4A
:1027A00009106421B0FBF1F000F00F0004432C810C
:1027B00006B0BDE8F08700000038014013B50446BC
:1027C00000BF80212046FFF705FF0028F9D09DF8C3
:1027D0000400A0801CBD70B505460C4604E014F84A
:1027E000011B2846FFF7EAFF20780028F7D170BDCB
:1027F00001468888C0F308007047000070B586B0B5
:1028000004460D46164602963348844212D12846A5
:10281000FFF76AFD25208DF804000020ADF81400B4
:102820000C20ADF812000020ADF81000ADF80E003D
:10283000ADF80C002948844212D12846FFF7ACFDC0
:1028400026208DF804000020ADF814000C20ADF80F
:1028500012000020ADF81000ADF80E00ADF80C002D
:102860001F48844212D12846FFF7F0FD27208DF83B
:1028700004000020ADF814000C20ADF81200002078
:10288000ADF81000ADF80E00ADF80C0000212046A8
:10289000FFF746FE2046FFF74FFE02A92046FFF74E
:1028A00021FF01212046FFF73BFE012240F2255186
:1028B0002046FFF7F1FE01208DF8070000208DF87B
:1028C00005002046FFF7BEFE8DF8060001A8FFF7C1
:1028D00041FB06B070BD00000038014000440040DC
:1028E0000048004000BFFEE740F2013200204FF0F8
:1028F000E04101F034BA0000024A0020110701F063
:102900002EBA000001FDFFFF10B50446D1E9000119
:1029100000F002F8206010BDF8B504460D466A4686
:1029200000F0DAFA00987E30009000281FDC0022C8
:1029300013462046294601F0AFF818D0002140F692
:1029400008004FF0000006462046294601F05EF8D8
:10295000044640F6080006EA00014FF0000034F09B
:10296000004004BF0220FEF7FFFA2046F8BD0098A1
:10297000FF280DDB0220FEF7F7FA0022134620465F
:10298000294601F07FF98CBF04484FF0FF40F8BDA5
:1029900020462946BDE8F84001F038B8000080FF25
:1029A00010B504460A46D4E90003194600F042FB7C
:1029B000C4E9000110BD30380A2801D20120704757
:1029C00000207047014609B1086808B90020704727
:1029D00019B1D1E90120904201D30846F7E702E09E
:1029E0008868401C886041B1D1E90120904204D23E
:1029F0008A680868805C2028F2DDD1E901209042D5
:102A000002D18868401E88600846E0E770B5044639
:102A1000002522E02568A08900F4807020B9A06814
:102A200010B1A068FFF7F2FFA08900F4807028B908
:102A3000206918B10A4A206951688847A08900F4C2
:102A4000007028B9206A18B1054A206A5168884781
:102A500003484168204688472C46002CDAD170BDD7
:102A60005001002070B504460D460022294620463C
:102A700000F060FA70BD70B50446282021688847D0
:102A800005461DB128212846FDF7E8FD284670BD02
:102A900010B5044600221146204600F06BF810BD28
:102AA0002DE9F0478AB004460E46154698461C218B
:102AB00003A8FDF7D3FD002700202C4908604860DB
:102AC00004B106B932E00394049600200590284A28
:102AD00007CA07AB07C32648FFF7CDFF074607B96C
:102AE00024E003A800F0A4FE8246FFF76BFF8146B6
:102AF0004946384600F0DEFD00B917E0B8F1000F96
:102B00000BD003A8FFF75EFFDDE90410884203D273
:102B100005990398405C00B108E01DB10599039840
:102B20000844286038460AB0BDE8F08717B1384637
:102B3000FFF76CFFC4B1019400200290DDE904109E
:102B4000884202D20598029004E0049810B10498DB
:102B5000401E02901DB1DDE90101084428600348D0
:102B6000DDE9011206C000BF0020DCE748010020BB
:102B7000500100202DE9F04104460D46164614B9D7
:102B80000020BDE8F0812046FDF7CCFC471C334611
:102B90002A4639462046FFF783FFF2E770B5044620
:102BA0002046FFF775FF1B4908601BA11948006804
:102BB000FFF758FF30B318A116480068FFF752FF1F
:102BC00017A105692846FDF79BFC40B14FF4005161
:102BD0001448FFF7B7F914A0FDF7EAFB12E00EA1C5
:102BE0000C480068FFF73EFF10A105692846FDF775
:102BF00087FC38B14FF400510A48FFF7A1F90CA047
:102C0000FDF7D6FB03480068FFF700FFFEF7F4FF6F
:102C100070BD0000F80000206C6564310000000009
:102C200030000000001001406F66660031000000B7
:102C30006F6E000070B504460D4604B10DB9012059
:102C400070BDAC4201D10020FAE705E0207808B958
:102C50000020F5E7641C6D1C2078FDF79BFB064601
:102C60002878FDF797FB8642F0D02078FDF792FB9D
:102C700006462878FDF78EFB301AE1E770B54FF471
:102C80004070FFF79FF9144800684FF47A72B0FB68
:102C9000F2F1B1F1807F00D31DE021F07F40401EB2
:102CA0004FF0E022506150170F22002807DA130777
:102CB0001D0E0A4B00F00F04241F1D5503E01307DF
:102CC0001C0E074B1C5400BF00204FF0E022906107
:102CD0000720106100BF70BD0000002018ED00E06B
:102CE00000E400E02DE9FF470646894692460121AF
:102CF0000846FFF791F96B48864203D104274FF04D
:102D0000000828E06848864203D108274FF00108F0
:102D100021E06648864203D110274FF002081AE0EE
:102D20006348864203D120274FF0030813E061482F
:102D3000864203D140274FF004080CE05E488642EB
:102D400003D180274FF0050805E05C48864202D198
:102D500087154FF00608B9F5807F4BD01ADCB9F122
:102D6000100F3BD00CDCB9F1010F2BD0B9F1020FE1
:102D70002BD0B9F1040F2BD0B9F1080F52D12AE0B2
:102D8000B9F1200F2DD0B9F1400F2DD0B9F1800F3E
:102D900048D12CE0B9F5805F38D009DCB9F5007F67
:102DA0002BD0B9F5806F2BD0B9F5006F3AD12AE05E
:102DB000B9F5005F2DD0B9F5804F2DD0B9F5004F92
:102DC00030D12CE0002406252DE0012407252AE03F
:102DD0000224082527E00324092524E004240A25E9
:102DE00021E0052417251EE0062417251BE00724F3
:102DF000172518E00824172515E00924172512E0E7
:102E00000A2428250FE00B2428250CE00C24282573
:102E100009E00D24282506E00E24282503E00F24D0
:102E2000282500E000BF00BF01213846FFF7F4F875
:102E3000ADF80C9003208DF80E00BAF10C0F03D101
:102E400048208DF80F0009E0BAF1080F03D12820BF
:102E50008DF80F0002E004208DF80F0003A9304622
:102E6000FEF79AFF21464046FEF776FFCDF8049024
:102E700001208DF80A0000208DF808008DF809A0C7
:102E800001A8FEF71FFF8DF800500A208DF8010001
:102E90008DF8024001208DF803006846FFF75AF8CC
:102EA000BDE8FF8700080140000C01400010014010
:102EB0000014014000180140001C014000200140A6
:102EC00070B504460D46E1B20248FFF777FC204694
:102ED00070BD00000038014010B514460022226089
:102EE000114A21F000439342A8BF10BD53EA0002EB
:102EF00008BF10BDB3F5801FA8BF226807DA3622CD
:102F000000F02DFF6FF0350221F000432260DFF862
:102F10001CC06FF31E510CEB23531A4441F0FF51B8
:102F200041F00051226010BD0000F07F02FCFFFF65
:102F30002E2070472DE9F04105460E461746002425
:102F400005B116B90020BDE8F081AC685FB100E0C2
:102F500024688CB1206A78B13046216AFDF7A6FB5F
:102F60000028F5D108E000E024682CB13046216A41
:102F7000FFF760FE0028F7D10CB1206A08B90020E5
:102F8000E1E72046DFE70000F8B504460D461646A7
:102F90001F462148844204D101210420FFF73CF858
:102FA0002EE01E48844204D101210820FFF734F8A6
:102FB00026E01B48844204D101211020FFF72CF8A1
:102FC0001EE01848844204D101212020FFF724F894
:102FD00016E01548844204D101214020FFF71CF877
:102FE0000EE01248844204D101218020FFF714F83A
:102FF00006E00F48844203D101218015FFF70CF849
:10300000ADF800508DF803608DF8027069462046D7
:10301000FEF7C2FEF8BD000000080140000C0140B0
:10302000001001400014014000180140001C014044
:10303000002001402DE9F04106460C4640F2FF75A4
:10304000174635EA14502BD000221346304600F0C4
:1030500023FD25D03A463046214600F080FE064644
:103060000C4635EA145010D000221346304600F0CA
:1030700013FD15D10220FDF777FFFFF73DFC0A464F
:10308000214662F31E01BDE8F0810220FDF76CFFCE
:10309000FFF72AFC0A46214662F31E01BDE8F081D3
:1030A00030462146BDE8F081FFF7E8FD4FF41652A7
:1030B00000212248FFF7A2FB0323102251022048DF
:1030C000FFF762FF0323102240F2FF111D48FFF7B4
:1030D0005BFF4FF480711B48FEF732FF0C22012189
:1030E0001948FFF7FFFD0C2202211748FFF7FAFDF0
:1030F00000F07EFB0C2208211348FFF7F3FD0C22A1
:1031000010211148FFF7EEFD0C2220210E48FFF799
:10311000E9FD0C2240210C48FFF7E4FD0BA1074814
:10312000FFF759FB09E00B480078012805D10A4850
:10313000FFF734FD002007490870F4E7003801402C
:103140000010014000080140000C014068656C6CF3
:103150006F000000F60000205C0100202DE9F04126
:1031600080460C4600250027E068B0F57A7F02D340
:103170000020BDE8F081E068401CE060A1682068A4
:10318000405C5B2800D05FE0A068401CA060204647
:10319000FFF718FC4CB1D4E90110884205D2A168B0
:1031A0002068405C5D2800D13FE01CB1D4E90110EB
:1031B000884203D3A068401EA06045E0A068401E7E
:1031C000A06000BF04F11000FFF755FC064606B9E9
:1031D0003AE015B93546374602E03E60776037463B
:1031E000A068401CA0602046FFF7ECFB2146384653
:1031F00000F060FA00B927E02046FFF7E3FB44B196
:10320000D4E90110884204D2A1682068405C2C28CF
:10321000D8D044B1D4E90110884204D2A168206812
:10322000405C5D2800D00FE000BFE068401EE06019
:1032300005B16F602020C8F80C00C8F80850A068DD
:10324000401CA060012094E715B12846FFF7DEFB83
:1032500000208EE702460023002100BF23E0505CDF
:10326000302806DB505C392803DC505C30380344DE
:1032700015E0505C412806DB505C462803DC505CBE
:10328000373803440BE0505C612806DB505C66284D
:1032900003DC505C5738034401E0002070470329E9
:1032A00000D21B01491C0429D9D31846F6E70000B7
:1032B0002DE9F04391B080460C4600BF00201090ED
:1032C000FFF736FE814600250CB1206818B90020B2
:1032D00011B0BDE8F08300253CE0A16820680844F7
:1032E000405D342820D00ADCA0F12B0009282ED222
:1032F000DFE800F0202D212A2D1617181900382894
:1033000016D006DC352810D036280FD037281ED12D
:103310000DE039280DD045280FD0652817D10BE0D6
:1033200000BF00BF00BF00BF00BF00BF00BF00BFA5
:1033300000BF00BF00BF00BF00BFA16820680844F5
:10334000405D0DF8050003E00DF8059000E00AE08F
:1033500000BF6D1C3F2D05D224B1A06828446168D0
:103360008842BAD300BF00200DF8050010A96846B6
:1033700000F07CFA06460F4668461099884201D153
:103380000020A5E7C8E90667144A154B30463946C0
:1033900000F078FC04D86FF00040C8F8140011E089
:1033A0000022104B3046394600F0E2FB04D84FF0C3
:1033B0000040C8F8140005E03046394600F0A8FB8C
:1033C000C8F814000820C8F80C00A0686A461099D4
:1033D000891A0844A06001207AE700000000C0FFBD
:1033E000FFFFDF410000E0C12DE9F04180460C46BF
:1033F00000260025E068B0F57A7F02D30020BDE802
:10340000F081E068401CE06044B1D4E901108842DA
:1034100004D2A1682068405C7B2800D07DE0A068D1
:10342000401CA0602046FFF7CDFA4CB1D4E9011052
:10343000884205D2A1682068405C7D2800D15DE00B
:103440001CB1D4E90110884203D3A068401EA060DB
:1034500063E0A068401EA06000BF04F11000FFF709
:103460000AFB074607B958E016B93E463D4602E05A
:103470002F607D603D46A068401CA0602046FFF79D
:10348000A1FA2146284600F04EF800B945E0204652
:10349000FFF798FA286928620020286144B1D4E92E
:1034A0000110884204D2A1682068405C3A2800D00C
:1034B00033E0A068401CA0602046FFF783FA214655
:1034C000284600F0F7F800B927E02046FFF77AFA1F
:1034D00044B1D4E90110884204D2A1682068405C5C
:1034E0002C28BAD044B1D4E90110884204D2A16892
:1034F0002068405C7D2800D00FE000BFE068401EDF
:10350000E06006B175604020C8F80C00C8F808609B
:10351000A068401CA060012071E716B13046FFF79B
:1035200075FA00206BE72DE9F84F80460C46A1683C
:1035300020680844461CA16820680844451C0020F7
:1035400000900027A1682068405C222800D0A6E0F7
:103550004FF0000AD1460DE028785C2809D1681C9C
:103560002168401A6168884200D398E009F1010996
:103570006D1C6D1C2068281A6168884202D2287868
:103580002228E9D12068281A6168884202D2287866
:10359000222800D083E0A16820680844281AA0EB04
:1035A000090A0AF1010021698847074607B976E050
:1035B000009761E030785C2807D016F8010B00997D
:1035C00008700098401C009056E04FF00209A81BBC
:1035D000012800DA63E07078662819D008DC222818
:1035E00032D02F2832D05C282FD0622840D108E07A
:1035F0006E2814D0722819D074281ED0752837D19F
:103600002BE00820009908700098401C009030E0E2
:103610000C20009908700098401C009029E00A20B6
:10362000009908700098401C009022E00D2000993D
:1036300008700098401C00901BE009200099087059
:103640000098401C009014E000BF00BF7078009903
:1036500008700098401C00900BE06A4629463046EE
:1036600000F012F98146B9F1000F00D117E000E037
:1036700015E000BF4E4400BFAE429BD3002000992E
:1036800008701020C8F80C00C8F810702068281ABC
:10369000A060A068401CA0600120BDE8F88F17B1B1
:1036A00038466169884716B12068301AA06000204A
:1036B000F3E7000070B505460C460CB1206808B968
:1036C000002070BD9CB1A068001D616888420ED8C2
:1036D000A2682168881804223FA1FCF742FF30B994
:1036E0000420E860A068001DA0600120E9E79CB10B
:1036F000A068401D616888420ED8A26821688818B9
:10370000052237A1FCF72DFF30B90120E860A06841
:10371000401DA0600120D4E7ACB1A068001D616825
:10372000884210D8A2682168881804222EA1FCF7CC
:1037300018FF40B90220E86001206861A068001D00
:10374000A0600120BDE76CB1D4E90110884209D224
:10375000A1682068405C222804D121462846FFF752
:10376000E2FEAEE7BCB1D4E90110884213D2A168F1
:103770002068405C2D2809D0A1682068405C302872
:1037800009DBA1682068405C392804DC2146284612
:10379000FFF78EFD95E76CB1D4E90110884209D29C
:1037A000A1682068405C5B2804D121462846FFF7C9
:1037B000D5FC86E76CB1D4E90110884209D2A16832
:1037C0002068405C7B2804D121462846FFF70CFE88
:1037D00077E7002075E700006E756C6C0000000054
:1037E00066616C736500000074727565000000000E
:1037F00008B501210820FEF70FFC01210846FEF75D
:103800000BFC01210848FEF753FB0820ADF800002F
:1038100003208DF8020048208DF803006946034814
:10382000FEF7BAFA08BD000000023000000C0140AB
:1038300010B504461CB1206808B1A06808B100208A
:1038400010BD7CB1A068001D616888420AD2A268E0
:1038500021688818032204A1FCF783FE10B9A06830
:10386000C01CA0602046EBE7EFBBBF0000B583B0F3
:103870000A460021CDE9001101466846FDF76EFABF
:10388000DDE9000103B000BD2DE9FF5F80468946F8
:10389000154600240026C24600200390834602906D
:1038A0000190A9EB0A00062800DA81E00AF1020083
:1038B000FFF7D0FC0646B6F55C4F03D3B6F5604F74
:1038C00000D275E0B6F5584F29D3B6F55C4F26D235
:1038D0000AF10607002000900C200290A9EB0700D7
:1038E000062800DA64E038785C2802D178787528F8
:1038F00000D05DE0B81CFFF7ADFC00900098B0F57B
:103900005C4F03D30098B0F5604F00D350E0C6F38E
:103910000901009861F39F2000F5803402E0062041
:1039200002903446802C02D20120039018E0B4F5B6
:10393000006F04D202200390C020019010E0B4F583
:10394000803F04D203200390E020019008E0B4F50A
:10395000881F04D204200390F020019000E027E0AB
:103960000398401E00F0FF0B0BE004F0BF0040F096
:103970008000296801F80B00A409ABF1010000F0F8
:10398000FF0BBBF1000FF0DC0398012804DD019868
:1039900020432968087003E004F07F00296808705C
:1039A0002968039808442860029804B0BDE8F09F95
:1039B0000020FAE710B500290AD00878002807D0BF
:1039C00005487844FCF772FE002801D0002010BDA5
:1039D0000248784410BD000002050000FA0400000F
:1039E00010B500290AD00878002807D00548784487
:1039F000FCF75CFE002801D0002010BD024878448E
:103A000010BD0000E6050000DE05000021F00042C8
:103A1000A2F16052B2F5801F01F0004328BFD2F13D
:103A20007F6C0BD95FEA001C43EAC20242EB507084
:103A300018BF704728BF20F001007047B2F5801F03
:103A4000BCBF184670474FEA410C1CF5001F02D25C
:103A5000084600F04DB970B500F0C6F800000089C6
:103A6000FFF7F6BF4FF00040A0F580007047000060
:103A700002494FF0000000F040B900BF0000F87F9D
:103A8000491058BFC1F140415B1058BFC3F14043DA
:103A90008B42EFF30080704751EA030C17D41CF5FA
:103AA000801F58BFBCF5801F00F10680994218BFE7
:103AB000704708BF9042704707D711F5801F58BF65
:103AC00013F5801F19D499427047894270471CF53D
:103AD000801F08D5BCF5801FF7D58B4218BF7047F3
:103AE00008BF824270474FF4001C1CEB410F38BFE7
:103AF0001CEB430F01D28B42704770B500F074F895
:103B0000922449004FF000514FF08053FFF7B8BFA7
:103B10004FEA41034FEA5353A3F58063D3F11E03E9
:103B2000C8BFD3F1210C0CDD4FF0004242EAC122A4
:103B300042EA505232FA03FC8CEAE17CACEBE170D1
:103B40007047102BC4BF0020704703F5787CBCF190
:103B5000FF3F04D06FF0004282EA2100704770B549
:103B600000F042F84992248000207047F2E70000FC
:103B700051EA030C17D41CF5801F58BFBCF5801FF9
:103B800000F10680994218BF704708BF9042704705
:103B900007D711F5801F58BF13F5801F19D499421C
:103BA0007047894270471CF5801F08D5BCF5801FFF
:103BB000F7D58B4218BF704708BF824270474FF459
:103BC000001C1CEB410F38BF1CEB430F01D28B4292
:103BD000704770B500F008F8922449004FF000518A
:103BE0004FF08053FFF74CBF0EF1020E2EF0030E84
:103BF0005EF8046B364205D4012A43EB030515F544
:103C0000001F12D8012841EB010C1CF5001F0CD835
:103C10000ED14FEAD17C15F5001F0CEB4C0C0CF1CA
:103C2000020C08BF4CEBD37C04E04FF0080C01E021
:103C30004FEAD37C0CEB4C0526FA05F606F0070696
:103C4000B6F1040C06D20EEB860CBDE870404CF0C9
:103C5000010C6047DFE80CF0090B02024FF0004155
:103C60004FF00000A1F5002170BD19461046012853
:103C700051EB010418BFD4F5001484BF002001F0FB
:103C8000004170BD53EA010C17D41CF5801F58BFCA
:103C9000BCF5801F00F106808B4218BF704708BF3B
:103CA0008242704707D713F5801F58BF11F5801F58
:103CB00019D48B4270479B4270471CF5801F08D572
:103CC000BCF5801FF7D5994218BF704708BF9042D6
:103CD00070474FF4001C1CEB430F38BF1CEB410F27
:103CE00001D2994270470FB40CBC03BCFFF771BFFF
:103CF000FF2141EAD050C00570470CF00F03092B9B
:103D000008BF082000F05F800A2B0BD0082B18BFDB
:103D1000704708BF1CF0400F0AD04FF000004FF072
:103D2000000170471CF0400F18BF4FF00040704773
:103D30001CF0100F08D020F0704300F07F4242EAE0
:103D4000D3014FEA4370704700F0604021F07F429A
:103D500042EA000201F07F4040EA727070474FF083
:103D6000FF0C4CF4E06C1CEA11531CBF9CEA030CE2
:103D70009445C2BFDA4201EB02517047002B0DD0CF
:103D8000BCF1000F0FD0002A01F00041A4BF41F0A8
:103D9000E04141F07F614FF00000704701F00041C9
:103DA0004FF00000704750EA01334FF09B0C18BFF2
:103DB0004CF0806C7FF45CAE7047FCF73DBEFDF7C5
:103DC000D9B8FDF763BA1CF4801F11D01CF4E02FA2
:103DD00003D06FEACC31490070474FF04050EFF309
:103DE000008222F0704242EA000282F300887047AB
:103DF0004FF00000704704000008000000000000C1
:103E0000000200010000100002400000000000A0BD
:103E10000000000005400000000000C80000000095
:103E20000C4000000000409C000000001940000011
:103E30000020BCBE0000000034400000BFC91B8E43
:103E400000000004B5400000504BCFD06607E2CF21
:103E5000010000006C4100003E8251AADFEEA73451
:103E600001000000D9420000DCB5A0E23A301F9703
:103E7000FFFFFFFFB4450000FD25A0C8E9A3C14F27
:103E8000FFFFFFFFFF3F0000000000800000000078
:103E9000FF3F00000000008000000000F03F00082D
:103EA000000000205C0100002801000834400008E8
:103EB0005C0100208C070000840100080000000065
:103EC0000000F07F1001000043000000F8FFFFFF3A
:103ED000004040404040404040404141414141401D
:103EE00040404040404040404040404040404040D2
:103EF0004005020202020202020202020202020261
:103F00000220202020202020202020020202020265
:103F100002029090909090901010101010101010BD
:103F200010101010101010101010101002020202C9
:103F3000020288888888888808080808080808080D
:103F40000808080808080808080808080202020209
:103F50004000000000000000000000000000000021
:103F60000000000000000000000000000000000051
:103F70000000000000000000000000000000000041
:103F80000000000000000000000000000000000031
:103F90000000000000000000000000000000000021
:103FA0000000000000000000000000000000000011
:103FB0000000000000000000000000000000000001
:103FC00000000000000000000000000000000000F1
:103FD000000000001C00000043000000F8FFFFFF8D
:103FE0000C0000000E0000000F0000002E0000007A
:103FF0001184A24A040009180102030406070809F3
:104000000011C455534152543120496E7465727287
:1040100075707429F469F805100204060813240267
:104020007320209A440C9A640CC11331021B088F30
:04403000041ADD048D
:04000005080000ED02
:00000001FF
