:020000040800F2
:100000001007002089010008670300085F0300084B
:100010006303000843020008010600080000000016
:100020000000000000000000000000009D03000828
:1000300047020008000000009F0100088904000832
:10004000A3010008A3010008A3010008A301000800
:10005000A3010008A3010008A3010008A3010008F0
:10006000A3010008A3010008A3010008A3010008E0
:10007000A3010008A3010008A3010008A3010008D0
:10008000A3010008A3010008A3010008A3010008C0
:10009000A3010008A3010008A3010008A3010008B0
:1000A000A3010008A3010008A3010008A3010008A0
:1000B000A3010008A3010008A3010008A301000890
:1000C000A3010008A3010008A3010008A301000880
:1000D000A3010008090500083105000859050008BA
:1000E000A3010008A3010008A301000800F002F822
:1000F00000F03AF80AA090E8000C82448344AAF188
:100100000107DA4501D100F02FF8AFF2090EBAE885
:100110000F0013F0010F18BFFB1A43F0010318473B
:10012000B8060000D8060000103A24BF78C878C18D
:10013000FAD8520724BF30C830C144BF04680C60ED
:10014000704700000023002400250026103A28BF35
:1001500078C1FBD8520728BF30C148BF0B60704739
:100160001FB51FBD10B510BD00F031F81146FFF7E7
:10017000F7FF00F0DDFA00F04FF803B4FFF7F2FFED
:1001800003BC00F057F800000948804709480047C1
:10019000FEE7FEE7FEE7FEE7FEE7FEE7FEE7FEE737
:1001A000FEE7FEE704480549054A064B7047000094
:1001B000A9040008ED00000810010020100700202D
:1001C00010030020100300207047704770477546E9
:1001D00000F02CF8AE4605006946534620F00700B3
:1001E000854618B020B5FFF7DDFFBDE820404FF091
:1001F00000064FF000074FF000084FF0000B21F011
:100200000701AC46ACE8C009ACE8C009ACE8C009DD
:10021000ACE8C0098D46704710B50446AFF30080C6
:100220002046BDE81040FFF7A8BF00000048704717
:10023000AC00002001491820ABBEFEE726000200FA
:10024000704700BFFEE770472DE9F04102460025E8
:100250000026002000230024002791F803C00CF0A2
:100260000F0591F803C00CF0100CBCF1000F03D087
:1002700091F802C04CEA050591F800C0BCF1000FEE
:1002800031D0146800202BE04FF0010C0CFA00F381
:10029000B1F800C00CEA03069E4220D183004FF063
:1002A0000F0C0CFA03F7BC4305FA03FC4CEA0404F8
:1002B00091F803C0BCF1280F06D14FF0010C0CFAE5
:1002C00000FCC2F814C00AE091F803C0BCF1480F6A
:1002D00005D14FF0010C0CFA00FCC2F810C0401C14
:1002E0000828D1D31460B1F800C0BCF1FF0F34DD91
:1002F000546800202EE000F1080C4FF0010808FAC5
:100300000CF3B1F800C00CEA03069E4221D1830031
:100310004FF00F0C0CFA03F7BC4305FA03FC4CEA50
:10032000040491F803C0BCF1280F05D100F1080CBA
:1003300008FA0CF8C2F8148091F803C0BCF1480F19
:1003400007D100F1080C4FF0010808FA0CF8C2F8C8
:100350001080401C0828CED35460BDE8F08100BF57
:10036000FEE700BFFEE7704702490143024A116001
:10037000704700000000FA050CED00E029B1064AC4
:1003800092690243044B9A6104E0034A92698243F2
:10039000014B9A617047000000100240704710B591
:1003A00000F002F810BD00000CB500200190009094
:1003B0003348006840F480303149086000BF30485D
:1003C000006800F4003000900198401C01900098F3
:1003D00018B90198B0F5A06FF1D12948006800F470
:1003E000003010B10120009001E000200090009842
:1003F000012843D12348006840F0100021490860DB
:100400000846006820F0030008600846006840F0D5
:10041000020008601A484068194948600846406868
:1004200048600846406840F480604860084640687C
:1004300020F47C1048600846406840F4E8104860AA
:100440000846006840F08070086000BF0C480068F3
:1004500000F000700028F9D00948406820F003003F
:10046000074948600846406840F00200486000BF05
:100470000348406800F00C000828F9D10CBD0000CA
:10048000001002400020024005480068401C04495A
:10049000086004480068401C02490860704700007A
:1004A000400000204800002010B51348006840F0CC
:1004B00001001149086008464068104908400E498B
:1004C0004860084600680E4908400B490860084625
:1004D000006820F4802008600846406820F4FE0090
:1004E00048604FF41F008860FFF759FF4FF000602D
:1004F0000449086010BD0000001002400000FFF831
:10050000FFFFF6FE08ED00E010B540F22551064869
:1005100000F036F830B10448001D0088C1B203482D
:1005200000F058F810BD000000380140180000200D
:1005300010B540F22551064800F022F830B10448C9
:10054000001D0088C1B2034800F044F810BD00004F
:10055000004400402400002010B540F22551064818
:1005600000F00EF830B10448001D0088C1B2034805
:1005700000F030F810BD00000048004030000020BE
:1005800070B50246002400230025002040F66A16BC
:10059000B14200D100BFC1F3421501F01F03012693
:1005A00006FA03F3012D02D19689334006E0022DAD
:1005B00002D1168A334001E0968A33400C1201269C
:1005C00006FA04F41688344013B10CB1012000E09F
:1005D000002070BD10B5C28883889A420FDA028964
:1005E00083889A4201D1002202814AB204890368B9
:1005F0001A550289521C0281C288521CC28010BD49
:1006000000BFFEE770B54FF44070FFF7ADFE144831
:1006100000684FF47A72B0FBF2F1B1F1807F00D341
:100620001DE021F07F40401E4FF0E0225061501746
:100630000F22002807DA13071D0E0A4B00F00F04E3
:10064000241F1D5503E013071C0E074B1C5400BF4D
:1006500000204FF0E02290610720106100BF70BDC4
:100660000000002018ED00E000E400E030B5044692
:1006700000F072F8051900BF00F06EF8A842FBD335
:1006800030BD0000F8B504460D4616461F46214809
:10069000844204D101210420FFF770FE2EE01E48A1
:1006A000844204D101210820FFF768FE26E01B48A0
:1006B000844204D101211020FFF760FE1EE018489B
:1006C000844204D101212020FFF758FE16E015488E
:1006D000844204D101214020FFF750FE0EE0124871
:1006E000844204D101218020FFF748FE06E00F4834
:1006F000844203D101218015FFF740FEADF8005080
:100700008DF803608DF8027069462046FFF79CFD66
:10071000F8BD000000080140000C0140001001403D
:100720000014014000180140001C0140002001405D
:10073000FFF768FF0323102219460648FFF7A2FFC0
:1007400007E00121322000F027F80021322000F0DC
:1007500023F8F6E70008014000B50B4800684FF4A5
:100760007A72B0FBF2F04FF0E0229269801A4822D0
:10077000B0FBF2F200F00AF800EB4003C3EBC0104C
:1007800002EBC001084600BD0000002001480068DF
:10079000704700004000002070B504460D4600265A
:1007A0000B48056000BF0FE000200949091F0860E1
:1007B0004FF4FA50FFF75AFF01200649C1F88001B3
:1007C0000A20FFF753FF761CA642EDDB70BD000048
:1007D0008401214200002142F807000800000020A7
:1007E0004C00000028010008440800084C000020CC
:1007F000C40600004401000800A24A0400000000F2
:1008000000000000010203040607080900000000C0
:100810004C00002020000000000000006C000020C0
:1008200020000000000000008C00002020000000DC
:1008300000000000000000000000000000000000B8
:0408400000000000B4
:04000005080000ED02
:00000001FF
