:020000040800F2
:10000000500A0020ED010008AF1D0008A71D0008E0
:10001000AB1D00083F1A00085D2700080000000023
:10002000000000000000000000000000AD1F0008FC
:10003000691A000800000000030200089920000867
:10004000070200080702000807020008070200086C
:1000500007020008070200086D1A0008811A00084C
:1000600007020008951A0008A91A000807020008EC
:10007000070200080702000807020008070200083C
:10008000070200080702000807020008070200082C
:10009000070200080702000807020008BD1A00084E
:1000A000070200080702000807020008070200080C
:1000B00007020008070200080702000807020008FC
:1000C00007020008070200080702000807020008EC
:1000D000070200081921000839220008ED22000853
:1000E00007020008070200080702000800F002F8F3
:1000F00000F06CF80AA090E8000C82448344AAF156
:100100000107DA4501D100F061F8AFF2090EBAE853
:100110000F0013F0010F18BFFB1A43F0010318473B
:1001200054430000744300000A444FF0000C10F8E0
:10013000013B13F0070408BF10F8014B1D1108BF65
:1001400010F8015B641E05D010F8016B641E01F805
:10015000016BF9D113F0080F1EBF10F8014BAD1C55
:100160000C1B09D16D1E58BF01F801CBFAD505E073
:1001700014F8016B01F8016B6D1EF9D59142D6D3CD
:10018000704700000023002400250026103A28BFF5
:1001900078C1FBD8520728BF30C148BF0B607047F9
:1001A0001FB59DE8030000F03DFA00F037FD0400A4
:1001B0000020002103F0F2FE401C606000200021BE
:1001C00003F002FFE0601FBD10B510BD00F0C8FDD8
:1001D0001146FFF7E5FF03F003F901F017F803B448
:1001E000FFF7F2FF03BC01F047F800000948804721
:1001F00009480047FEE7FEE7FEE7FEE7FEE7FEE709
:10020000FEE7FEE7FEE7FEE704480549054A064B20
:1002100070470000B9200008ED00000850040020DD
:10022000500A0020500600205006002070B50646F7
:1002300000F0DCF9056806F10B0020F00704B44279
:100240009CBF002070BD2B466A68BAB11068A042FE
:1002500010D304F1080188423CBF5068586007D3AE
:100260005168101941601168091B016058601460E1
:10027000101D70BD13465268002AE7D1214628465A
:1002800000F0BCF90028DED170BD70B50446051F32
:1002900000F0ACF90068002C14BF446870BD002C5D
:1002A00018BFAC423CBF20466468F8D301680A1806
:1002B000AA4218BF456003D12A680546114401606F
:1002C00028684119A1421CBF6C6070BD61686960FB
:1002D00021680844286070BD70B50D460646041FAD
:1002E00000F084F9D0F800C0C5B1E6B105F10B000B
:1002F00020F00703AB423CBF002070BD206898424D
:1003000038BFDCF8042013D3C11A08292FD3E01812
:1003100040F8041B2360FFF7B8FF28E03046FFF7E2
:10032000B4FF002070BD2846BDE87040FFF77EBFD7
:10033000002A18BFA2423CBF94465268F8D3011964
:10034000914216D111680844984212D3C11A082963
:100350003CBF2060506808D35168E01841602168B4
:1003600012681144C91A01602360CCF80400201DF2
:1003700070BD181FFFF75AFF050007D021680A1F3C
:10038000211D00F08EF8201DFFF77FFF284670BD6D
:1003900010B5044600F022F90068005DC00602D5E1
:1003A00004F1200010BD204610BD30B505460B46B7
:1003B0002A4613F8014B12F8010B08B1A042F8D0FD
:1003C0001CB1002802D06D1CF1E7284630BD10B5E5
:1003D000431C02E010F8011B71B18107FAD14FF004
:1003E000013202C88C1A8C4314EAC211F9D0C01A27
:1003F0000A0603D0C01E10BDC01A10BD0A0401D0E9
:10040000801E10BD0902FCD0401E10BD40EA010351
:1004100070B59B072ED14FF00136042A2AD308C8A5
:1004200010C99D1B9D43121F15EAC61517D0D8B2DF
:10043000E1B2401A50EA056110D198B2A1B2401A57
:1004400050EA05410AD123F07F4024F07F41401A51
:1004500050EA052102D1180EA0EB146070BDA34232
:10046000DBD018BA21BA884201D9012070BD4FF003
:10047000FF3070BD0AB9002070BD10F8013B11F8C3
:10048000014B63B1A3420AD1521E08D010F8013BC0
:1004900011F8014B1BB1A34201D1521EEDD1181B23
:1004A00070BD10B5203AC0F00B80B1E81850203A6A
:1004B000A0E81850B1E81850A0E81850BFF4F5AF04
:1004C0005FEA027C24BFB1E81850A0E8185044BF8E
:1004D00018C918C0BDE810405FEA827C24BF51F8FB
:1004E000043B40F8043B08BF7047D20728BF31F8EF
:1004F000023B48BF11F8012B28BF20F8023B48BF40
:1005000000F8012B70474FF0000200B513469446E7
:100510009646203922BFA0E80C50A0E80C50B1F15B
:100520002001BFF4F7AF090728BFA0E80C5048BF6F
:100530000CC05DF804EB890028BF40F8042B08BF0D
:10054000704748BF20F8022B11F0804F18BF00F809
:10055000012B70474FF0013C50F8042B51F8043B3D
:100560009A4221D1A2EB0C03934313EACC1317D187
:1005700050F8042B51F8043B9A4215D1A2EB0C031E
:10058000934313EACC130BD150F8042B51F8043BDE
:100590009A4209D1A2EB0C03934313EACC13DBD0AC
:1005A0004FF00000704700BFD01A01BAB1FA81F1D4
:1005B00001F0180122FA01F0CB40C1F12001DBB2B9
:1005C000C0B2C01A2CFA01F3D11A914311EAC31137
:1005D000E6D17047704770477047000010B500F0D3
:1005E0001DFB001D10BD00BFB5390000004870475D
:1005F000F4030020704770477047704738B50446D1
:100600000A4600206946AFF30080002808BF38BDC5
:1006100002460099204600F009FB012038BD012068
:1006200000F096BBF8B5AFF30080054600200C46FD
:10063000102000BF0646A819A0420DD932466946CF
:100640000020AFF30080070008BF00F081FB009896
:10065000A04218BF0546C419FFF7C8FF056007464A
:10066000F01D20F007004619284600F00AF8B442B1
:1006700008BFF8BDA21B31463868BDE8F84000F05D
:10068000D5BA00210160C0E9011070471020704701
:100690002DE9FF4F064689B00878FF2806D0491C8F
:1006A0002D2805D000244FF0000908E000200CE0C0
:1006B0000124F8E709EB8903491C00EB430908789A
:1006C000FF28F7D114B1C9F1000081461078002548
:1006D0002C46AA4629462D2801D02B2804D1521C8D
:1006E0002D2813D0002082468B461078FF280FD08B
:1006F0004FF0000C0A21521CA5FB017804FB01817C
:1007000005FB0C11C5194BEB0104EEE70120EAE7EC
:10071000002108464FF00000BAF1000F02D000EBB4
:1007200080004008C0F38158B8F1010F01DD4FF09F
:10073000FF380C9809EB000755EA040009D04FF088
:10074000020917F5FA7F0BDA4FEACA70C6E900B062
:1007500012E04FEACA70C6E900B00DB0BDE8F08FF4
:10076000B7F5FA7F0DDDF0487844D0E90010C6E90E
:10077000001040EACA70706000F054FAC0F80090AF
:10078000EBE7391E02DAC8F1000200E0424600DA67
:10079000794206A800F06EFA06AB93E8070003ABB7
:1007A00083E8070044F23E005BEA040100905846EB
:1007B00004D144F21E012C465D460091210C09042F
:1007C000014306D10099240444EA15442D0410394C
:1007D000009104F07F41014306D10099240244EACC
:1007E00015642D020839009104F07041014306D1CF
:1007F0000099240144EA15742D01091F009104F0A9
:100800004041014306D10099A40044EA9574AD002B
:10081000891E009104F00041084304D100986D192D
:100820006441401E009042466846002FCDE90145D4
:1008300003A902DD00F0CDFF01E000F0A2FFBAF154
:10084000000F04460D4601D084F0004440F2FF77CB
:1008500024F00040284303D0C4F30A50B84212D118
:1008600000F0E0F9C0F80090C4F30A50B8420AD191
:10087000AE487844D0E90010C6E9001004F0004109
:100880000843706069E7C6E9005466E72DE9FF4F49
:100890001F464FF0000A4FF0FF38454691B0D7E9A8
:1008A0000146CDF83CA000F0B9F9C0680168405C91
:1008B0001090B96912986D1C8847396A814688473B
:1008C0000028F6D1B9F1FF3F0AD0002E24F4D064FD
:1008D00011DDB9F12B0F08D0B9F12D0F0BD102E0CA
:1008E000404615B03AE744F48064B96912986D1C2B
:1008F0008847761E8146600504A901D52D2000E0B9
:100900002B20002E01F1010B0DF130088DF81000A5
:100910003FDDB9F1690F08D0B9F1490F05D0B9F140
:100920006E0F02D0B9F14E0F1CD13B4601A80095C5
:1009300080E85002DDE912126FF0020003F035FD8D
:10094000C11CCED10EE0B96912986D1C8847814652
:100950001398761E44F4007405600F98401C002E16
:100960000F9016DDB9F1300FEDD0B9F1780F02D04C
:10097000B9F1580F0DD10F9801280AD13B46CDE9A6
:100980000054DDE91212001F029603F00CFDC11C99
:10099000A7D1109989453ED144F0800406E013990F
:1009A000681CAAF1010A44F400740860B9696D1C5E
:1009B0001298761E884730288146F0D02BE0109997
:1009C000894505D1200603D4761E44F0800418E042
:1009D000484601F02CFF08B3761E0DF123018B452C
:1009E00044F4007408D2A9F130000BF8010B200682
:1009F00007D5AAF1010003E0200602D40AF10100A4
:100A00008246A00502D51399681C0860B96912983E
:100A10006D1C88478146002ED1DC53E0002E51DD4D
:100A2000B9F1650F02D0B9F1450F4BD1A00549D5F9
:100A3000B9696D1C1298761E24F440748847002E04
:100A400081460CDD2B2804D0B9F12D0F07D144F4D9
:100A50008074B96912986D1C8847761E8146E0053E
:100A600001D52D2100E02B2108F8011BCDF80080D5
:100A700021E0761E0DF13901884544F400740CD252
:100A8000A9F1300010F0FF0088F8000002D10099B1
:100A9000884509D908F1010806E0E00501D5244898
:100AA00001E042F20F708246B96912986D1C8847C6
:100AB000814613980560002E04DD484601F0B7FE1C
:100AC0000028D6D1F96912988847FF2053468BF841
:100AD000000088F8000000200A900B9004AA0CA9DE
:100AE0000AA8FFF7D5FDA00502D46FF00100F8E6D3
:100AF00014F0240F0AD0E00714D13868DDE90A1297
:100B0000031D3B600068C0E900120BE00AA96846BB
:100B100001F036FEE00705D13868009A011D396002
:100B2000006802602846DCE6283D00001E3C00000C
:100B3000F1D8FFFF426842B1016811F8013B23B1CF
:100B4000521EC0E90012184670470121C160881E7C
:100B5000704742685AB1C368016843B983688B42E1
:100B600005D0491E521CC0E90012002070474FF00A
:100B7000FF3070470FB4002300B589B00CA9009175
:100B80000B99CB60204B7B440693204B7B4407930F
:100B900004236FF00042CDE901321D4A7A446B46CE
:100BA00008920246002003F0FCFB09B05DF814FB3C
:100BB00070B506464FF0FF3015460C46324686B0FB
:100BC0000091CDE9010169460020049004A8FFF7D7
:100BD000D1FF03460498211825B108B10A4600E068
:100BE00022462A6000280DD0002B02DD00988842A2
:100BF00008D03246081B69460094CDE9010404A8D8
:100C0000FFF7B8FF06B070BDABFFFFFFC3FFFFFFEC
:100C1000C100000000487047EC0300200048704706
:100C20000C04002000487047EC0300200346406895
:100C30008C46002818BF88423CBF03464068F8D362
:100C400018681844884207D00CF1030020F0070010
:100C5000001D411A521A0146081D0A60FFF715BB14
:100C600010B50446FFF7BAFC0068005D00F0010013
:100C700010BD00002DE9F047814616468AB0334882
:100C800078440DC88DE80D0030487844801C03ACD2
:100C90000DC884E80D0041F69B300844372190FBD5
:100CA000F1F290FBF1F5A5F1800501FB12041B3C6C
:100CB00002D56442012000E00020DFF890A08046C9
:100CC0000027FA44AAF1BE0A0DE0E00709D0324637
:100CD000684607EB47010AEB810100F066FD8DE8ED
:100CE000070064107F1C002CEFD1184F7F44AC3FED
:100CF00018E0E80714D007EB04100DF1180A90E88B
:100D00000E008AE80E00C068F04201D198190890E0
:100D1000324606A903A800F048FD03AB83E80700AC
:100D20006D10641C002DE4D132466946B8F1000F05
:100D300003A802D000F011FD01E000F036FDC9E982
:100D40000001C9F808200AB0BDE8F087D8370000D4
:100D500010B500F069FABDE8104000F060BA7047C5
:100D60007546FFF757FFAE4605006946534620F02B
:100D70000700854618B020B5FFF746FABDE82040C9
:100D80004FF000064FF000074FF000084FF0000B47
:100D900021F00701AC46ACE8C009ACE8C009ACE8FA
:100DA000C009ACE8C0098D46704710B5FFF73AFF9F
:100DB000006810BD10B50446FFF734FF046010BD95
:100DC0002DE9FF4F1F464FF03C0987B04FF000421E
:100DD000DDE9141001F10108DDF858A002EA4050E5
:100DE0000390002004908346054604460590B969A7
:100DF000461E08988847AAF1010A0290BAF1000F2E
:100E000037DD02982E2815D0102100F04EFA002868
:100E10002ADB4FF0010B0499014316D0B9F1000F02
:100E20000BDB4A46C11700F02DFA05430C43A9F12C
:100E3000040905E00120059007E008B145F001052F
:100E400001200490059800B9361DB969089808F189
:100E500001088847BBF1000FAAF1010A0290CDD02A
:100E60000999C1F80080C9E70298702808D0502875
:100E700006D0F96908988847BBF1000F14D04FE0FD
:100E8000002002900120BBF1000F049009D0B96945
:100E9000089808F101088847AAF10109B9F1000F83
:100EA00007DCF969089888476FF001000BB0BDE8CE
:100EB000F08F2B2804D02D280CD14FF0FF30049058
:100EC000B969089808F101088847A9F10109B9F141
:100ED000000FE6DD411CE4D00A2100F0E6F900280D
:100EE000DFDB029908F1010801EB810100EB410011
:100EF0000290B969089888470A2100F0D6F9099A42
:100F0000A9F10109B9F1000FC2F8008001DD002844
:100F1000E7DAF969089888470499029800FB0166A6
:100F200055EA040004D004F04041090002D006E074
:100F3000039898E0A40044EA9574AD00B61E04F04E
:100F40000041080002D16D196441761E159810F019
:100F5000240F03D04FF00B095C4803E04FF0280941
:100F60006FF07D008246564507DAAAEB06018944F8
:100F7000B9F1410F01DD4FF0410901200021A9F134
:100F8000010200F07FF9024628400B462140084349
:100F900001D0012100E00021501E029143F1FF31F8
:100FA00028402140084301D0012000E000200299A0
:100FB000834651EA0B014FD0002108464FF0000054
:100FC000039900F4400039B100EB80004FF4400178
:100FD00000EBD07001EA60008015012802DD4FF0BF
:100FE000FF3000E013D0401C36D0029860B3BBF154
:100FF000000F0CD14A460120002100F043F928409F
:101000002140084301D0012000E00020E0B1012090
:101010004A46002100F036F9034640190A4661416C
:101020002D1A8C4111D3B9F1400F09DD159810F03C
:10103000240F02D0AAF1340603E0AAF1170600E05B
:10104000761C00254FF0004406E05B1E42F1FF32A3
:1010500020EA030521EA0204CAF10100B04206DADF
:101060001B49039808430190002000900EE0039A6A
:10107000C4F3D321E80A0A43164940EA44500A431C
:101080003146CDE90002684601F0C6FB159810F024
:10109000240F0BD01598C00715D13868DDE9001270
:1010A000031D3B600068C0E900120CE002A869461D
:1010B00001F066FB1598C00705D13868029A011D3A
:1010C0003960006802604046F0E6000002FCFFFF65
:1010D0000000F07F0000F03F2DE9FF4F92461D46D3
:1010E00085B04FF00041DDE9124BDDE914727F1E3F
:1010F00001EA4B50414940F0FF4940EA0108002114
:1011000022F020004928049102D04E2828D04CE03B
:101110003BA0012607C88DE80700A9690698641C52
:1011200088477F1E014606D41DF8060018B121F03D
:10113000200181420BD0E96906988847032E34D0FC
:10114000082E32D06FF0010009B0BDE8F08F761C98
:10115000032E01D0082EE0D1601CCAF80000DCE7A5
:10116000A9690698641C88477F1E2AD420F02000B5
:10117000412826D1A9690698641C88477F1E20D47F
:1011800020F020004E281CD1A9690698641C8847CD
:101190007F1E48F4002849F48009CAF8004001D4B1
:1011A000282806D0E969069888475FEACB7012D0F4
:1011B00022E0A9690698641C88477F1E01D4002894
:1011C00003DAE96906988847BCE72928F1D1641C4D
:1011D000CAF80040E9E71BF0240F07D028680499FB
:1011E000031D2B600068C0E9001805E02868021D97
:1011F0002A600068C0F800902046A5E70000F07F54
:10120000494E46494E4954590000000010B5044665
:10121000AFF300802046BDE81040FEF7E0BF002895
:1012200001D000F029B8704710B5012805D0002181
:1012300003A000F048F8012010BD09A1F8E7000064
:1012400053494752544D454D3A204F7574206F66AF
:101250002068656170206D656D6F72790000000017
:101260003A2048656170206D656D6F727920636FFB
:10127000727275707465640001491820ABBEFEE798
:1012800026000200B2F120030AD5C2F1200301FAC0
:1012900002F120FA03F300FA02F041EA0301704779
:1012A00000FA03F14FF0000070473A2800D23038BE
:1012B00020F02002412A01D3A2F13700884201D355
:1012C0004FF0FF30704770B505460C460A2000E02D
:1012D0006D1C00F011F835B128780028F8D102E033
:1012E000641C00F009F814B120780028F8D1BDE89A
:1012F00070400A20AFF3008008B569468DF8000001
:101300000320ABBE08BD20F07F4C80EA030023F031
:101310007F47ACEB070303F57C5300F0004003F17B
:10132000FF032DE980494FEA154B09B44FEA1443F6
:1013300025EA0B4E24EA03480FF2042606EB132796
:1013400049083E785FEA320203FB0667C7F50007EB
:1013500007FB06F64FEA54374FEAD64606F1020677
:1013600007FB066CCCF1005C4FEA1C472CEA074CEB
:1013700007FB06F40CFB06F504EB15464FEA961640
:1013800034BF00204FF000404FEAD13706FB07FC86
:101390004FEA1C4C0CFB0BF7D21B03FB0CF761EB69
:1013A00007010CFB0EF7B0EB074072EB17420CFB8A
:1013B00008F734BFA2EB0742B2EB074261EB1741DB
:1013C0004FEA0C444FEA910706FB07FC4FEA1C4C1E
:1013D0000CFB0BF7B0EBC74072EB573203FB0CF77B
:1013E00034BFA2EBC742B2EBC74261EB57310CFBF3
:1013F0000EF7B0EBC70072EB57720CFB08F734BF67
:10140000A2EBC702B2EBC70261EB5771039F4FEA31
:10141000816141EA921104EBCC044FEAD1374FEAE3
:10142000826206FB07FC42EA90124FEA80604FEAB4
:101430001C4C0CFB0BF7D21B03FB0CF761EB0701F9
:101440000CFB0EF7B0EB074072EB17420CFB08F7F2
:1014500034BFA2EB0742B2EB074261EB17414FEA00
:101460008C554FEA910704EB9C2406FB07FC4FEADE
:101470001C4C0CFB0BF7B0EBC74072EB573203FB75
:101480000CF734BFA2EBC742B2EBC74261EB573156
:101490000CFB0EF7B0EBC70072EB57720CFB08F7B2
:1014A00034BFA2EBC702B2EBC70261EB577115EB79
:1014B0004C254FEA816141EA92114FEA82624FEA7C
:1014C000D13742EA901206FB07FC44F100044FEAD0
:1014D00080604FEA1C4C0CFB0BF7D21B03FB0CF794
:1014E00061EB07010CFB0EF7B0EB074072EB174204
:1014F0000CFB08F734BFA2EB0742B2EB074261EBEB
:10150000174115EB1C154FEA813141EA92414FEA30
:10151000823242EA90424FEA80304FEA0C7644F140
:10152000000448EA03434EEA0B484FF0000EB2EBCA
:10153000080C71EB030724BF624639464EEB0E0ED2
:101540004FF0000B0018524149414BEB0B0BB2EB33
:10155000080C71EB03077BF1000B24BF6246394690
:101560004EEB0E0E4FF0000B0018524149414BEB71
:101570000B0BB2EB080C71EB03077BF1000B24BFE4
:10158000624639464EEB0E0E51EA020718BF46F08E
:10159000010616EB0E7655F1000254F1000103D559
:1015A000BDE88901BDE80088BDE88901BDE80048C3
:1015B000B619524141EB0101A3F10103704780804C
:1015C0007F7E7D7C7B7A797877767675747372719D
:1015D00071706F6E6E6D6C6C6B6A6A696868676655
:1015E00066656464636362616160605F5F5E5E5DE7
:1015F0005D5C5C5B5B5A5A5959585857575656555B
:1016000055555454535352525251515050504F4FBC
:101610004F4E4E4D4D4D4C4C4C4B4B4B4A4A4A490C
:10162000494948484847474747464646454545444F
:101630004444444343434342424242414141000007
:1016400046EA0646A3F570534FEA164646EA425666
:101650004FEAD22242EA415210B54FEAD121A3F11A
:10166000010300F017F820F0004000F1010C00F039
:10167000004701EB00501146BCF5006F40EA07003F
:1016800000D210BD02484FF0000140EA070010BD33
:101690000000F07F002B26D4770021D01CB54FEA44
:1016A000370703B44FF010004FF010014FF0000067
:1016B0000FBCBDE810400BF1010BBBF1010F08BFDF
:1016C0005FEA170722BF12F1010211F101014FF089
:1016D000004143F1000300F0004043EA000070477E
:1016E000F9D35708DAE746EA064613F1400F4FEA06
:1016F00016461FDD13F1200FDFBF16430A460021F7
:1017000020335B42C8D0C3F1200746EA064602FAFE
:1017100007F74FEA164646EA0706C3F1200722FA02
:1017200003F201FA07F721FA03F14FF0000342EA4E
:101730000702B1E746EA020646EA06464FEA1646BF
:1017400046EA0106BCBF46EA0646360C4FF00003E7
:101750004FF000024FF000019EE72DE9C04893468C
:1017600030B491E8380007C831EA400C48BF34EA89
:10177000430C03D5FFF7C7FDFFF78CFFF0BCBDE8B6
:1017800000882DE9C048934630B491E8380007C876
:1017900031EA400C48BF34EA430C03D5FFF7B3FDF0
:1017A000FFF74EFFF0BCBDE800882DE9C048934626
:1017B00030B491E8380007C810F0804F08BF13F02C
:1017C000804F03D100F019F8FFF764FFF0BCBDE8CB
:1017D00000882DE9C048934630B491E8380007C826
:1017E00010F0804F08BF13F0804F03D100F005F8D0
:1017F000FFF726FFF0BCBDE8008820F07F4780EAB5
:10180000030023F07F4C07EB0C03A3F57C5300F09F
:101810000040A3F1FE0392F0000F00F0B38095F0BA
:10182000000F00F077802DE901494FEA11404FEA9F
:10183000144621EA004800FB06FC24EA064708FBA0
:1018400006F607FB08F800FB07F718EB06484CEB19
:10185000164C4FEA124B18EB07484FEA15464CEB73
:10186000174022EA0B4E0BFB06FC25EA06470EFB4F
:1018700006F607FB0EFE0BFB07F71EEB064E4CEBC6
:10188000164C4FF000061EEB074E4CEB174B18EBB7
:101890000B0840F1000018EB0E0B58EB000840F16C
:1018A00000008F1A4FF000013CBFC943661B14BFF4
:1018B000B5EB040C00213CBFC943F61B4FEA1744AB
:1018C0004EEA8E0E27EA04454FEA1C4704FB0762E6
:1018D0002CEA074C05FB07F70CFB05F604FB0CFC98
:1018E00016EB074642EB174216EB0C4642EB1C4246
:1018F0001BEB060658EB0202414146EA9E0601D563
:10190000BDE80189B619524141EB0101A3F1010380
:10191000BDE801894FEA14454FEA114724EA05461C
:1019200021EA074C05FB07F406FB07F70CFB06F161
:1019300005FB0CFC11EB074144EB17444FEA12473F
:1019400011EB0C4144EB1C4422EA074C05FB07F267
:1019500006FB07F70CFB06F605FB0CFC16EB07462F
:1019600042EB174216EB0C4642EB1C456A1854F149
:10197000000148BF7047B619524141EB0101A3F184
:101980000103704795F0000F37D04FEA11424FEA3C
:10199000144721EA024624EA074C02FB07F106FB42
:1019A00007F70CFB06F402FB0CFC14EB074441EBBD
:1019B00017414FEA154714EB0C4441EB1C4125EA53
:1019C000074C02FB07F506FB07F70CFB06F602FBCC
:1019D0000CFC16EB074645EB174516EB0C4645EBA2
:1019E0001C42121951F1000148BF7047B61952410B
:1019F00041EB0101A3F1010370474FEA14454FEA9F
:101A0000114724EA054621EA074C05FB07F106FBCE
:101A100007F70CFB06F24FF0000605FB0CFC12EB7F
:101A2000074241EB174112EB0C4251EB1C4148BFFE
:101A30007047921841EB0101A3F10103704700BF09
:101A4000FEE70000002000BF04E00021044A11541A
:101A5000411C88B26428F8DB0021024A11707047EB
:101A60003C010020950000207047000010B50120C7
:101A70000249087000F032F810BD00002800002074
:101A800010B5012002490870022000F027F810BDAF
:101A90002900002010B5012002490870082000F03C
:101AA0001DF810BD2A00002010B501200249087061
:101AB000102000F013F810BD2B00002010B52020DE
:101AC00000F012F810B1202000F008F8402000F0DB
:101AD0000BF810B1402000F001F810BD014908607A
:101AE0007047000014040140014600200022074B0B
:101AF0001B6803EA0102054B14331B680B4013B14A
:101B00000AB1012000E000207047000000040140FD
:101B1000002123498279002A3AD00A4612680368D4
:101B20009A430B461A600A1D126803689A430B1DFC
:101B30001A60027911440A6803681A430A60184A55
:101B40000832126803689A43154B08331A601A1D4D
:101B5000126803689A43124B0C331A604279102AB8
:101B60000ED11A1F126803681A430D4B08331A600E
:101B70001A1D126803681A43094B0C331A600DE0F2
:101B80000749427911440A6803681A430A6005E06C
:101B9000027911440A6803689A430A60704700009A
:101BA0000004014030B500228B071C0F0F2303FAFD
:101BB00004F20B4B8C1053F824309343084C8D10D7
:101BC00044F8253023468C1053F824308C07240F1A
:101BD00000FA04F42343024C8D1044F8253030BD44
:101BE000080001402DE9F0410246002500260020B2
:101BF00000230024002791F803C00CF00F0591F892
:101C000003C00CF0100CBCF1000F03D091F802C01F
:101C10004CEA050591F800C0BCF1000F31D0146802
:101C200000202BE04FF0010C0CFA00F3B1F800C0DB
:101C30000CEA03069E4220D183004FF00F0C0CFAF1
:101C400003F7BC4305FA03FC4CEA040491F803C013
:101C5000BCF1280F06D14FF0010C0CFA00FCC2F8C1
:101C600014C00AE091F803C0BCF1480F05D14FF051
:101C7000010C0CFA00FCC2F810C0401C0828D1D39B
:101C80001460B1F800C0BCF1FF0F34DD54680020CF
:101C90002EE000F1080C4FF0010808FA0CF3B1F83F
:101CA00000C00CEA03069E4221D183004FF00F0CC6
:101CB0000CFA03F7BC4305FA03FC4CEA040491F860
:101CC00003C0BCF1280F05D100F1080C08FA0CF88C
:101CD000C2F8148091F803C0BCF1480F07D100F19D
:101CE000080C4FF0010808FA0CF8C2F81080401CEC
:101CF0000828CED35460BDE8F0810000F0B50A4654
:101D0000002300240021002500F00046B6F1004F1A
:101D100002D11D4EF16901E01B4E7168C0F303450D
:101D200083B200F44016B6F5401F08D121F070616F
:101D3000154E766826F07066134F7E6012E000F450
:101D40008016B6F5801F06D1032606FA05F4A143D6
:101D500041F0706106E0460D360103FA06F6B14324
:101D600041F0706122B1460D360103FA06F63143A7
:101D700000F00046B6F1004F02D1034EF16101E0E0
:101D8000014E7160F0BD00000000014002460020DD
:101D900093680B400BB1012000E0002070474161C7
:101DA00070470161704700BFFEE700BFFEE7704764
:101DB00070B5002100230F22C47804B3154C2468A9
:101DC00004F4E064C4F5E064210AC1F10403CA40EC
:101DD000447804FA03F184781440214309010E4C3D
:101DE0000678A155047804F01F050124AC4005785D
:101DF0006D11AD0005F1E025C5F8004109E004785A
:101E000004F01F050124AC40044D0678761145F816
:101E1000264070BD0CED00E000E400E080E100E051
:101E200002490143024A1160704700000000FA05B0
:101E30000CED00E00648006800F4E0600549084346
:101E4000001D03490860BFF34F8F00BFFEE700008D
:101E50000CED00E00000FA0529B1064AD269024300
:101E6000044BDA6104E0034AD2698243014BDA6130
:101E7000704700000010024029B1064A126902436F
:101E8000044B1A6104E0034A12698243014B1A6150
:101E9000704700000010024029B1064A92690243CF
:101EA000044B9A6104E0034A92698243014B9A61B0
:101EB000704700000010024029B1064AD268024370
:101EC000044BDA6004E0034AD2688243014BDA60D3
:101ED000704700000010024030B5002100220024AD
:101EE00000232D4D6D6805F00C0121B1042905D0AA
:101EF000082923D105E0294D056022E0274D056022
:101F00001FE0254D6D6805F47012234D6D6805F4D2
:101F10008034022505EB92421CB9214D55430560E2
:101F20000BE01D4D6D6805F400351DB11C4D55438A
:101F3000056002E0194D5543056002E0174D05604C
:101F400000BF00BF144D6D6805F0F0010909154D83
:101F50006B5C0568DD4045600F4D6D6805F4E06120
:101F6000090A104D6B5C4568DD4085600A4D6D685F
:101F700005F46051C90A0B4D6B5C4568DD40C560D6
:101F8000054D6D6805F44041890B074D6B5CC568D4
:101F9000B5FBF3F5056130BD0010024000127A0078
:101FA00000093D00DC000020EC000020704710B567
:101FB00000F002F810BD00000CB500200190009068
:101FC0003348006840F480303149086000BF304831
:101FD000006800F4003000900198401C01900098C7
:101FE00018B90198B0F5A06FF1D12948006800F444
:101FF000003010B10120009001E000200090009816
:10200000012843D12348006840F0100021490860AE
:102010000846006820F0030008600846006840F0A9
:10202000020008601A48406819494860084640683C
:1020300048600846406840F4806048600846406850
:1020400020F47C1048600846406840F4E81048607E
:102050000846006840F08070086000BF0C480068C7
:1020600000F000700028F9D00948406820F0030013
:10207000074948600846406840F00200486000BFD9
:102080000348406800F00C000828F9D10CBD00009E
:10209000001002400020024005480068401C04492E
:1020A000086004480068401C02490860704700004E
:1020B000F0000020F800002010B51348006840F040
:1020C00001001149086008464068104908400E495F
:1020D0004860084600680E4908400B4908600846F9
:1020E000006820F4802008600846406820F4FE0064
:1020F00048604FF41F008860FFF759FF4FF0006001
:102100000449086010BD0000001002400000FFF804
:10211000FFFFF6FE08ED00E010B540F225511E4825
:1021200000F0BCF9002835D01B4800F09DFA1B498F
:102130000870084600780A2808D00A7818490878F4
:10214000411C174B197017490A5423E00020164907
:10215000088018E0134814490988405C272805D1F5
:1021600022201249104A1288885407E00D480E496F
:102170000988415C0D480C4A128881540A4800883D
:10218000401C09490880084800886428E2DB0748A9
:1021900000F040FC10BD0000003801409400002019
:1021A000950000203C010020DA000020A001002062
:1021B00010B50446E4B901210520FFF76DFE0121A9
:1021C0008803FFF769FE4FF4007018490880182053
:1021D000C870032088701648FFF704FD4FF4806034
:1021E000124908800420C8701148FFF7FBFC1BE06F
:1021F000012C19D101210820FFF74EFE012188038F
:10220000FFF74AFE4020094908801820C8700320C3
:1022100088700848FFF7E6FC802004490880042005
:10222000C8700448FFF7DEFC10BD00002401002048
:1022300000080140000C014010B540F2255106484D
:1022400000F02CF930B10448001D0088C1B20348E9
:1022500000F062F910BD0000004400400C010020B5
:1022600010B5044601214804FFF7F6FD022C1AD1EF
:1022700001210420FFF710FE01214804FFF7ECFDC7
:102280000420174908801820C8700320887015485A
:10229000FFF7A8FC0820124908800420C8701148E4
:1022A000FFF7A0FC1BE0032C19D101212020FFF730
:1022B000F3FD01214804FFF7CFFD202008490880E5
:1022C0001820C870032088700748FFF78BFC402057
:1022D000034908800420C8700348FFF783FC10BD41
:1022E00024010020000801400014014010B540F214
:1022F0002551064800F0D2F830B10448001D00888E
:10230000C1B2034800F008F910BD000000480040C9
:102310001801002010B5044601218804FFF79CFD38
:10232000042C1AD101210820FFF7B6FD01218804F1
:10233000FFF7B2FD2002284908801820C87003204A
:1023400088702648FFF74EFC60022349088004206D
:10235000C8702248FFF746FC3CE0052C1CD1012147
:102360001020FFF799FD01218804FFF795FD4FF438
:102370008060194908801820C870032088701848A8
:10238000FFF730FC4FF40060134908800420C87048
:102390001348FFF727FC1DE0062C1BD1012120204C
:1023A000FFF77AFD01218804FFF776FD4FF4807076
:1023B000094908801820C870032088700948FFF771
:1023C00011FC4FF40070044908800420C8700548CF
:1023D000FFF708FC10BD000024010020000C0140A4
:1023E000001001400014014021B1828942F40052E2
:1023F000828104E082894DF6FF731A408281704722
:1024000010B504462048844209D101218803FFF712
:1024100053FD00214FF48040FFF74EFD32E01B4892
:10242000844209D101214804FFF726FD00214FF421
:102430000030FFF721FD25E01548844209D1012134
:102440008804FFF719FD00214FF48020FFF714FDE9
:1024500018E01048844209D10121C804FFF70CFD9F
:1024600000214FF40020FFF707FD0BE00A488442EB
:1024700008D101210805FFF7FFFC00214FF480106F
:10248000FFF7FAFC10BD0000003801400044004096
:1024900000480040004C00400050004070B502462B
:1024A000002400230025002040F66A16B14200D126
:1024B00000BFC1F3421501F01F03012606FA03F322
:1024C000012D02D19689334006E0022D02D1168AF1
:1024D000334001E0968A33400C12012606FA04F4D8
:1024E0001688344013B10CB1012000E0002070BD0B
:1024F0000146064A914200D10020054A914200D18E
:102500000120044A914200D1022070470038014066
:10251000004400400048004010B5C28883889A42B9
:102520000FDA028983889A4201D1002202814AB2DD
:10253000048903681A550289521C0281C288521C00
:10254000C28010BDF0B503460024002600250020FF
:1025500040F66A17B94200D100BF1846C1F34214D1
:1025600001F01F06012707FA06F5012C01D10C30F6
:1025700004E0022C01D1103000E014301AB10768D9
:102580002F43076002E00768AF430760F0BD00001B
:102590002DE9F04786B005460E460024A24600BF4E
:1025A000A1460027B08900B100BF2F462C8A4CF607
:1025B000FF700440F08804432C82AC894EF6F3107F
:1025C0000440B08831890843718908430443AC81D1
:1025D000AC8A4FF6FF400440B0890443AC8201A8A6
:1025E000FFF77AFC1F48874202D1DDF810A001E016
:1025F000DDF80CA0A88900F4004040B10AEBCA0045
:1026000000EB0A1031684900B0FBF1F807E00AEB73
:10261000CA0000EB0A1031688900B0FBF1F86420B1
:10262000B8FBF0F004012009642101FB1089A8899E
:1026300000F4004040B1322000EBC900B0FBF1F0E3
:1026400000F00700044308E0322000EB0910642189
:10265000B0FBF1F000F00F0004432C8106B0BDE8A0
:10266000F08700000038014001468888C0F3080068
:102670007047000070B586B004460D4616460296B7
:102680003348844212D12846FFF792FD25208DF869
:1026900004000020ADF814000C20ADF8120000205A
:1026A000ADF81000ADF80E00ADF80C0029488442DA
:1026B00012D12846FFF7D4FD26208DF80400002013
:1026C000ADF814000C20ADF812000020ADF8100099
:1026D000ADF80E00ADF80C001F48844212D1284618
:1026E000FFF718FE27208DF804000020ADF8140035
:1026F0000C20ADF812000020ADF81000ADF80E006F
:10270000ADF80C0000212046FFF76EFE2046FFF7D3
:1027100077FE02A92046FFF73BFF01212046FFF785
:1027200063FE012240F225512046FFF70BFF0120F6
:102730008DF8070000208DF805002046FFF7D8FE31
:102740008DF8060001A8FFF733FB06B070BD00004E
:1027500000380140004400400048004000BFFEE750
:1027600040F2013200204FF0E04101F0ECBD0000EA
:10277000024A0020110701F0E6BD000001FDFFFF45
:1027800010B50446D1E9000100F002F8206010BD48
:10279000F8B504460D466A4600F0BCFC00987E3051
:1027A000009000281FDC002213462046294601F035
:1027B00067FC18D0002140F608004FF000000646E4
:1027C0002046294601F016FC044640F6080006EAB9
:1027D00000014FF0000034F0004004BF0220FEF77B
:1027E000E9FA2046F8BD0098FF280DDB0220FEF72D
:1027F000E1FA002213462046294601F037FD8CBF3E
:1028000004484FF0FF40F8BD20462946BDE8F84097
:1028100001F0F0BB000080FF10B504460A46D4E981
:102820000003194600F0A2FDC4E9000110BD3038D4
:102830000A2801D20120704700207047014609B1E3
:10284000086808B90020704719B1D1E90120904209
:1028500001D30846F7E702E08868401C886041B170
:10286000D1E90120904204D28A680868805C20285F
:10287000F2DDD1E90120904202D18868401E8860D3
:102880000846E0E770B50446002522E02568A089E7
:1028900000F4807020B9A06810B1A068FFF7F2FFC3
:1028A000A08900F4807028B9206918B10A4A20690B
:1028B00051688847A08900F4007028B9206A18B1CF
:1028C000054A206A5168884703484168204688477E
:1028D0002C46002CDAD170BD3001002070B50446C2
:1028E0000D4600222946204600F042FC70BD70B51E
:1028F000044628202168884705461DB1282128461E
:10290000FDF701FE284670BD10B5044600221146B1
:10291000204600F06BF810BD2DE9F0478AB0044660
:102920000E46154698461C2103A8FDF7ECFD00272E
:1029300000202C490860486004B106B932E00394D5
:10294000049600200590284A07CA07AB07C326480B
:10295000FFF7CDFF074607B924E003A801F098F977
:102960008246FFF76BFF81464946384601F0D2F8B0
:1029700000B917E0B8F1000F0BD003A8FFF75EFF16
:10298000DDE90410884203D205990398405C00B148
:1029900008E01DB1059903980844286038460AB03C
:1029A000BDE8F08717B13846FFF76CFFC4B101945A
:1029B00000200290DDE90410884202D205980290BE
:1029C00004E0049810B10498401E02901DB1DDE9A6
:1029D0000101084428600348DDE9011206C000BF78
:1029E0000020DCE728010020300100202DE9F04123
:1029F00004460D46164614B90020BDE8F081204675
:102A0000FDF7E5FC471C33462A4639462046FFF7CA
:102A100083FFF2E710B504462046FFF775FF7949BA
:102A2000086079A177480068FFF758FF7849086087
:102A300078A174480068FFF751FF7749086077A1D3
:102A400070480068FFF74AFF7749086077A16D4832
:102A50000068FFF743FF7849086078A1694800687B
:102A6000FFF73CFF7849086078A166480068FFF7E7
:102A700035FF7849086078A162480068FFF72EFFAB
:102A80007749086077A15F480068FFF727FF77491B
:102A9000086077A15B480068FFF720FF764908606F
:102AA00076A158480068FFF719FF7649086076A1BB
:102AB00054480068FFF712FF7649086076A1514834
:102AC0000068FFF70BFF774908605148006840B184
:102AD0004F490968086974A1FDF767FC08B1FFF761
:102AE000A9F94D48006828B14B49096808696EA1E9
:102AF000FDF75BFC5448006828B153490968086930
:102B00006AA1FDF752FC4C48006848B14A4909687F
:102B100008696CA1FDF749FC10B101206B490870F0
:102B20004C48006890B14B490968086968A1FDF7F5
:102B30003CFC58B1012068490870002067490870C2
:102B40006748008810B90A20654908804448006831
:102B500060B14349096808695AA1FDF726FC28B10C
:102B600001205E49087000205B4908703F480068FA
:102B700048B13E49096808695AA1FDF716FC10B131
:102B80000120594908803C48006848B13A49096821
:102B9000086956A1FDF709FC10B1012054490880CD
:102BA0003848006848B137490968086951A1FDF7FC
:102BB000FCFB10B10120504908803648006848B13C
:102BC0003449096808694DA1FDF7EFFB10B10120F8
:102BD0004D4908803348006848B13249096808699E
:102BE0004AA1FDF7E2FB10B101204B49088000200B
:102BF0004A49087003480068FFF744FEFEF722FFC9
:102C000010BD000098000020486F6D6500000000B6
:102C1000A4000020496D6700BC0000204E756D6265
:102C2000657244726F700000C000002044697374C4
:102C3000616E636500000000C800002043686563A2
:102C40006B4572726F720000C40000205374617291
:102C5000740000009C00002053746F70000000009E
:102C6000A00000204379636C65000000A8000020EC
:102C70004164645F78000000AC0000205375625F1F
:102C800078000000B000002054616B655F776174CC
:102C900065720000B400002044726F705F77617449
:102CA00065720000B80000204F4E000064615F7440
:102CB000727579656E5F7468616E685F636F6E6769
:102CC0000000000073746F7000000000CD00002051
:102CD0007374617274000000CE000020CF000020E9
:102CE0002E00002072756E00D00000206164640028
:102CF000D200002073756200D400002074616B65FF
:102D00005F77617465720000D600002064726F7096
:102D10005F77617465720000D80000209600002083
:102D200070B504460D4604B10DB9012070BDAC422A
:102D300001D10020FAE705E0207808B90020F5E786
:102D4000641C6D1C2078FDF723FB06462878FDF7F0
:102D50001FFB8642F0D02078FDF71AFB0646287844
:102D6000FDF716FB301AE1E700B5014600F020FC44
:102D7000421800BF00F01CFC9042FBD300BD0000D5
:102D800070B54FF44070FFF74BF8144800684FF4EB
:102D90007A72B0FBF2F1B1F1807F00D31DE021F037
:102DA0007F40401E4FF0E022506150170F22002854
:102DB00007DA13071D0E0A4B00F00F04241F1D55E0
:102DC00003E013071C0E074B1C5400BF00204FF0FC
:102DD000E02290610720106100BF70BD000000205C
:102DE00018ED00E000E400E000B503461846FFF7E8
:102DF000BBFF00BD30B5044600F0C0FB051900BFA5
:102E000000F0BCFBA842FBD330BD00001CB54FF462
:102E1000E1704249088008460088B0F57A7F00D307
:102E20001CBD4FF47A7000900123102220210190E4
:102E30003B4800F04BFF3B48006800F57A70394989
:102E4000086040F2A2504FF47A6101234022CDE99C
:102E500000108021324800F039FF3348006800F24A
:102E60003250314908602D48008844F62061012322
:102E70001022CDE900102021294800F027FF274823
:102E80000088401C254908806420FFF7ADFF2348D7
:102E900000884FF47A7100231022CDE90010202120
:102EA0001F4800F013FF0020204908700AE00120AD
:102EB0004FF47A6100234022CDE9001080211848A8
:102EC00000F004FF1948007828B910211848FEF7CF
:102ED0005DFF0028EBD000201449087012480068FC
:102EE000A0F23250104908600AE001204FF47A71D4
:102EF00000231022CDE900102021094800F0E6FE51
:102F00000C48007828B908210948FEF73FFF00283F
:102F1000EBD000200749087000BF81E714000020B3
:102F20000008014020000020240000202B00002089
:102F3000000C01402A0000202DE9FF470646894683
:102F4000924601210846FEF7A7FF6B48864203D14F
:102F500004274FF0000828E06848864203D108277C
:102F60004FF0010821E06648864203D110274FF058
:102F700002081AE06348864203D120274FF0030875
:102F800013E06148864203D140274FF004080CE06B
:102F90005E48864203D180274FF0050805E05C4873
:102FA000864202D187154FF00608B9F5807F4BD0D5
:102FB0001ADCB9F1100F3BD00CDCB9F1010F2BD0AA
:102FC000B9F1020F2BD0B9F1040F2BD0B9F1080FD2
:102FD00052D12AE0B9F1200F2DD0B9F1400F2DD0F8
:102FE000B9F1800F48D12CE0B9F5805F38D009DC09
:102FF000B9F5007F2BD0B9F5806F2BD0B9F5006FF4
:103000003AD12AE0B9F5005F2DD0B9F5804F2DD027
:10301000B9F5004F30D12CE0002406252DE0012425
:1030200007252AE00224082527E00324092524E0B7
:1030300004240A2521E0052417251EE0062417256F
:103040001BE00724172518E00824172515E009249C
:10305000172512E00A2428250FE00B2428250CE070
:103060000C24282509E00D24282506E00E24282517
:1030700003E00F24282500E000BF00BF01213846EF
:10308000FEF70AFFADF80C9003208DF80E00BAF1A0
:103090000C0F03D148208DF80F0009E0BAF1080F9A
:1030A00003D128208DF80F0002E004208DF80F00D6
:1030B00003A93046FEF796FD21464046FEF772FD15
:1030C000CDF8049001208DF80A0000208DF808004A
:1030D0008DF809A001A8FEF71BFD8DF800500A200D
:1030E0008DF801008DF8024001208DF8030068463C
:1030F000FEF75EFEBDE8FF8700080140000C0140BE
:10310000001001400014014000180140001C014063
:103110000020014010B5144600222260114A21F01F
:1031200000439342A8BF10BD53EA000208BF10BD80
:10313000B3F5801FA8BF226807DA362201F003F931
:103140006FF0350221F000432260DFF81CC06FF3FE
:103150001E510CEB23531A4441F0FF5141F0005132
:10316000226010BD0000F07F02FCFFFF2E207047A0
:103170002DE9F04105460E461746002405B116B963
:103180000020BDE8F081AC685FB100E024688CB13C
:10319000206A78B13046216AFDF7DCF90028F5D1C4
:1031A00008E000E024682CB13046216AFFF7B8FD42
:1031B0000028F7D10CB1206A08B90020E1E72046C9
:1031C000DFE700001CB50AE001204FF4B9710023CD
:1031D0001022CDE900102021334800F077FD33485C
:1031E000007828B908213248FEF7D0FD0028EBD03E
:1031F00000202E4908700AE001204FF4AF71034609
:103200000246CDE900100221274800F05FFD294861
:10321000007828B901212648FEF7B8FD0028EBD038
:103220000020244908700AE001204FF4B9710346D8
:103230000422CDE9001008211B4800F047FD1E487C
:10324000007828B902211A48FEF7A0FD0028EBD02B
:103250000020194908700AE001204FF4FA610023A8
:103260004022CDE9001080210F4800F02FFD1348C7
:10327000007828B910210E48FEF788FD0028EBD011
:1032800000200E4908704FF4FA70FFF7ADFD4FF4BF
:1032900096504FF4AF7100230122CDE900100221B6
:1032A000014800F013FD1CBD000801402A00002069
:1032B000000C014028000020290000202B000020E5
:1032C000F8B504460D4616461F462148844204D1EF
:1032D00001210420FEF7E0FD2EE01E48844204D1C7
:1032E00001210820FEF7D8FD26E01B48844204D1C6
:1032F00001211020FEF7D0FD1EE01848844204D1C1
:1033000001212020FEF7C8FD16E01548844204D1B3
:1033100001214020FEF7C0FD0EE01248844204D196
:1033200001218020FEF7B8FD06E00F48844203D15A
:1033300001218015FEF7B0FDADF800508DF8036057
:103340008DF8027069462046FEF74CFCF8BD00007F
:1033500000080140000C0140001001400014014031
:1033600000180140001C0140002001402DE9F041FF
:1033700006460C4640F2FF75174635EA14502BD02E
:1033800000221346304600F07BFE25D03A463046F8
:10339000214600F0D8FF06460C4635EA145010D0FE
:1033A00000221346304600F06BFE15D10220FDF7D7
:1033B00001FDFFF7DDF90A46214662F31E01BDE873
:1033C000F0810220FDF7F6FCFFF7CAF90A46214614
:1033D00062F31E01BDE8F08130462146BDE8F08170
:1033E0001CB5FFF7CDFC4FF4165200215848FFF7EB
:1033F00041F90323102251025648FFF761FF0323CE
:10340000102291015448FFF75BFF0323102240F282
:10341000FF115248FFF754FF4FF480614E48FEF70A
:10342000BEFC082201214C48FFF786FD082202213C
:103430004948FFF781FD00F00BFC08221146464881
:10344000FFF77AFD082210214348FFF775FD0C2293
:1034500020214148FFF770FD0C2240213E48FFF734
:103460006BFDFFF7AFFE71E03D480088012804D1F5
:1034700000F062FC00203A4908803A4800880128A0
:1034800004D1FFF7C3FC0020364908803648008885
:1034900001280ED14FF4C8704FF47A710023012235
:1034A000CDE9001002212D4800F010FC00202E492B
:1034B00008802E48008801280ED14FF4C8704FF4C0
:1034C0007A7101231A46CDE900100221234800F049
:1034D000FDFB00202549088025480088012809D1E6
:1034E00000F02AFC6420FFF73FFCFFF78FFC002070
:1034F0001F4908801F480078012827D100F01CFCD4
:10350000FFF784FC1C480088401E1B4908804FF4CC
:10351000C8604FF47A7100230122CDE90010022126
:103520000E4800F0D3FB1448008878B94FF480614E
:103530000948FEF736FC4FF47A70FFF755FC4FF45C
:1035400080610548FEF72BFCFEF774FC8CE7000059
:103550000038014000100140000C0140000801400B
:10356000D6000020D8000020D2000020D400002087
:10357000D0000020CE0000202E00002000B50B4817
:1035800000684FF47A72B0FBF2F04FF0E0229269DB
:10359000801A4822B0FBF2F200F00AF800EB400378
:1035A000C3EBC01002EBC001084600BD00000020C4
:1035B0000148006870470000F00000202DE9F0414C
:1035C00080460C4600250027E068B0F57A7F02D3DC
:1035D0000020BDE8F081E068401CE060A168206840
:1035E000405C5B2800D05FE0A068401CA0602046E3
:1035F000FFF724F94CB1D4E90110884205D2A16843
:103600002068405C5D2800D13FE01CB1D4E9011086
:10361000884203D3A068401EA06045E0A068401E19
:10362000A06000BF04F11000FFF761F9064606B97B
:103630003AE015B93546374602E03E6077603746D6
:10364000A068401CA0602046FFF7F8F821463846E5
:1036500000F060FA00B927E02046FFF7EFF844B128
:10366000D4E90110884204D2A1682068405C2C286B
:10367000D8D044B1D4E90110884204D2A1682068AE
:10368000405C5D2800D00FE000BFE068401EE060B5
:1036900005B16F602020C8F80C00C8F80850A06879
:1036A000401CA060012094E715B12846FFF7EAF816
:1036B00000208EE702460023002100BF23E0505C7B
:1036C000302806DB505C392803DC505C303803447A
:1036D00015E0505C412806DB505C462803DC505C5A
:1036E000373803440BE0505C612806DB505C6628E9
:1036F00003DC505C5738034401E000207047032985
:1037000000D21B01491C0429D9D31846F6E7000052
:103710002DE9F04391B080460C4600BF0020109088
:10372000FFF724FD814600250CB1206818B9002060
:1037300011B0BDE8F08300253CE0A1682068084492
:10374000405D342820D00ADCA0F12B0009282ED2BD
:10375000DFE800F0202D212A2D161718190038282F
:1037600016D006DC352810D036280FD037281ED1C9
:103770000DE039280DD045280FD0652817D10BE072
:1037800000BF00BF00BF00BF00BF00BF00BF00BF41
:1037900000BF00BF00BF00BF00BFA1682068084491
:1037A000405D0DF8050003E00DF8059000E00AE02B
:1037B00000BF6D1C3F2D05D224B1A068284461686C
:1037C0008842BAD300BF00200DF8050010A9684652
:1037D00000F0A4FA06460F4668461099884201D1C7
:1037E0000020A5E7C8E90667144A154B304639465C
:1037F00000F03CFD04D86FF00040C8F8140011E060
:103800000022104B3046394600F0A6FC04D84FF099
:103810000040C8F8140005E03046394600F06CFC62
:10382000C8F814000820C8F80C00A0686A4610996F
:10383000891A0844A06001207AE700000000C0FF58
:10384000FFFFDF410000E0C12DE9F04180460C465A
:1038500000260025E068B0F57A7F02D30020BDE89D
:10386000F081E068401CE06044B1D4E90110884276
:1038700004D2A1682068405C7B2800D07DE0A0686D
:10388000401CA0602046FEF7D9FF4CB1D4E90110DE
:10389000884205D2A1682068405C7D2800D15DE0A7
:1038A0001CB1D4E90110884203D3A068401EA06077
:1038B00063E0A068401EA06000BF04F11000FFF7A5
:1038C00016F8074607B958E016B93E463D4602E0ED
:1038D0002F607D603D46A068401CA0602046FEF73A
:1038E000ADFF2146284600F04EF800B945E02046DD
:1038F000FEF7A4FF286928620020286144B1D4E9BA
:103900000110884204D2A1682068405C3A2800D0A7
:1039100033E0A068401CA0602046FEF78FFF2146E0
:10392000284600F0F7F800B927E02046FEF786FFAA
:1039300044B1D4E90110884204D2A1682068405CF7
:103940002C28BAD044B1D4E90110884204D2A1682D
:103950002068405C7D2800D00FE000BFE068401E7A
:10396000E06006B175604020C8F80C00C8F8086037
:10397000A068401CA060012071E716B13046FEF738
:1039800081FF00206BE72DE9F84F80460C46A168C7
:1039900020680844461CA16820680844451C002093
:1039A00000900027A1682068405C222800D0A6E093
:1039B0004FF0000AD1460DE028785C2809D1681C38
:1039C0002168401A6168884200D398E009F1010932
:1039D0006D1C6D1C2068281A6168884202D2287804
:1039E0002228E9D12068281A6168884202D2287802
:1039F000222800D083E0A16820680844281AA0EBA0
:103A0000090A0AF1010021698847074607B976E0EB
:103A1000009761E030785C2807D016F8010B009918
:103A200008700098401C009056E04FF00209A81B57
:103A3000012800DA63E07078662819D008DC2228B3
:103A400032D02F2832D05C282FD0622840D108E015
:103A50006E2814D0722819D074281ED0752837D13A
:103A60002BE00820009908700098401C009030E07E
:103A70000C20009908700098401C009029E00A2052
:103A8000009908700098401C009022E00D200099D9
:103A900008700098401C00901BE0092000990870F5
:103AA0000098401C009014E000BF00BF707800999F
:103AB00008700098401C00900BE06A46294630468A
:103AC00000F0D6F98146B9F1000F00D117E000E00F
:103AD00015E000BF4E4400BFAE429BD300200099CA
:103AE00008701020C8F80C00C8F810702068281A58
:103AF000A060A068401CA0600120BDE8F88F17B14D
:103B000038466169884716B12068301AA0600020E5
:103B1000F3E7000070B505460C460CB1206808B903
:103B2000002070BD9CB1A068001D616888420ED85D
:103B3000A2682168881804223FA1FCF767FC30B90D
:103B40000420E860A068001DA0600120E9E79CB1A6
:103B5000A068401D616888420ED8A2682168881854
:103B6000052237A1FCF752FC30B90120E860A068BB
:103B7000401DA0600120D4E7ACB1A068001D6168C1
:103B8000884210D8A2682168881804222EA1FCF768
:103B90003DFC40B90220E86001206861A068001D7A
:103BA000A0600120BDE76CB1D4E90110884209D2C0
:103BB000A1682068405C222804D121462846FFF7EE
:103BC000E2FEAEE7BCB1D4E90110884213D2A1688D
:103BD0002068405C2D2809D0A1682068405C30280E
:103BE00009DBA1682068405C392804DC21462846AE
:103BF000FFF78EFD95E76CB1D4E90110884209D238
:103C0000A1682068405C5B2804D121462846FFF764
:103C1000D5FC86E76CB1D4E90110884209D2A168CD
:103C20002068405C7B2804D121462846FFF70CFE23
:103C300077E7002075E700006E756C6C00000000EF
:103C400066616C73650000007472756500000000A9
:103C500008B501210820FEF71FF901210846FEF7EB
:103C60001BF901210848FEF749F80820ADF80000CB
:103C700003208DF8020048208DF8030069460348B0
:103C8000FDF7B0FF08BD000000023000000C01404D
:103C900010B504461CB1206808B1A06808B1002026
:103CA00010BD7CB1A068001D616888420AD2A2687C
:103CB00021688818032204A1FCF7A8FB10B9A068AA
:103CC000C01CA0602046EBE7EFBBBF002DE9F0472A
:103CD0000746884614461D46DDE9089A002625B9A0
:103CE00021463846FEF75BF803E021463846FEF7EA
:103CF00058F800260EE041463846FEF750F80A20F4
:103D0000FFF778F841463846FEF74BF84846FFF78C
:103D100071F8761C5645EED3BDE8F08700B583B048
:103D20000A460021CDE9001101466846FCF740FF34
:103D3000DDE9000103B000BD1CB54FF448504FF45D
:103D4000B97100230422CDE9001008214148FFF792
:103D5000BDFF4FF42F504FF4B97101231022CDE96C
:103D6000001020213B48FFF7B1FF40F232504FF4E2
:103D7000FA6101234022CDE9001080213548FFF788
:103D8000A5FF3548006800F23250334908604FF40F
:103D9000C8504FF4B97101231022CDE90010202141
:103DA0002C48FFF793FF2D48006800F5C8502B49B9
:103DB000086000202A4908700AE001204FF47A6167
:103DC00000234022CDE9001080212248FFF77EFF2A
:103DD0002348007828B910212248FDF7D7FF002892
:103DE000EBD000201E4908701F4908700AE001202E
:103DF0004FF4B97100231022CDE90010202115489D
:103E0000FFF764FF1848007828B908211548FDF726
:103E1000BDFF0028EBD0002013490870134908703B
:103E20000AE001204FF4B97103460422CDE90010E5
:103E300008210848FFF74AFF0C48007828B90221FA
:103E40000848FDF7A3FF0028EBD0002007490870C1
:103E50001CBD0000000801402400002020000020BC
:103E60002B000020000C01402A0000202900002027
:103E70002DE9FF5F80468946154600240026C2468C
:103E800000200390834602900190A9EB0A000628C7
:103E900000DA81E00AF10200FFF70CFC0646B6F5F5
:103EA0005C4F03D3B6F5604F00D275E0B6F5584FBE
:103EB00029D3B6F55C4F26D20AF106070020009000
:103EC0000C200290A9EB0700062800DA64E038789D
:103ED0005C2802D17878752800D05DE0B81CFFF727
:103EE000E9FB00900098B0F55C4F03D30098B0F563
:103EF000604F00D350E0C6F30901009861F39F20A2
:103F000000F5803402E0062002903446802C02D274
:103F10000120039018E0B4F5006F04D20220039052
:103F2000C020019010E0B4F5803F04D2032003903C
:103F3000E020019008E0B4F5881F04D2042003902B
:103F4000F020019000E027E00398401E00F0FF0BF6
:103F50000BE004F0BF0040F08000296801F80B007E
:103F6000A409ABF1010000F0FF0BBBF1000FF0DC86
:103F70000398012804DD019820432968087003E0B4
:103F800004F07F00296808702968039808442860B5
:103F9000029804B0BDE8F09F0020FAE710B50029B0
:103FA0000AD00878002807D005487844FCF7D2FAF0
:103FB000002801D0002010BD0248784410BD000048
:103FC000F2040000EA04000010B500290AD00878C5
:103FD000002807D005487844FCF7BCFA002801D037
:103FE000002010BD0248784410BD0000D605000036
:103FF000CE05000021F00042A2F16052B2F5801F10
:1040000001F0004328BFD2F17F6C0BD95FEA001C9E
:1040100043EAC20242EB507018BF704728BF20F03D
:1040200001007047B2F5801FBCBF184670474FEAC9
:10403000410C1CF5001F02D2084600F04DB970B5C6
:1040400000F0C6F800000089FFF7F6BF4FF000400F
:10405000A0F580007047000002494FF0000000F01A
:1040600040B900BF0000F87F491058BFC1F140417E
:104070005B1058BFC3F140438B42EFF300807047A1
:1040800051EA030C17D41CF5801F58BFBCF5801FE4
:1040900000F10680994218BF704708BF90427047F0
:1040A00007D711F5801F58BF13F5801F19D4994207
:1040B0007047894270471CF5801F08D5BCF5801FEA
:1040C000F7D58B4218BF704708BF824270474FF444
:1040D000001C1CEB410F38BF1CEB430F01D28B427D
:1040E000704770B500F074F8922449004FF0005109
:1040F0004FF08053FFF7B8BF4FEA41034FEA5353E5
:10410000A3F58063D3F11E03C8BFD3F1210C0CDDEE
:104110004FF0004242EAC12242EA505232FA03FC16
:104120008CEAE17CACEBE1707047102BC4BF00203F
:10413000704703F5787CBCF1FF3F04D06FF000427C
:1041400082EA2100704770B500F042F8499224805D
:1041500000207047F2E7000051EA030C17D41CF569
:10416000801F58BFBCF5801F00F10680994218BF20
:10417000704708BF9042704707D711F5801F58BF9E
:1041800013F5801F19D499427047894270471CF576
:10419000801F08D5BCF5801FF7D58B4218BF70472C
:1041A00008BF824270474FF4001C1CEB410F38BF20
:1041B0001CEB430F01D28B42704770B500F008F83A
:1041C000922449004FF000514FF08053FFF74CBF4D
:1041D0000EF1020E2EF0030E5EF8046B364205D48B
:1041E000012A43EB030515F5001F12D8012841EB06
:1041F000010C1CF5001F0CD80ED14FEAD17C15F52F
:10420000001F0CEB4C0C0CF1020C08BF4CEBD37CE8
:1042100004E04FF0080C01E04FEAD37C0CEB4C05B6
:1042200026FA05F606F00706B6F1040C06D20EEBE8
:10423000860CBDE870404CF0010C6047DFE80CF0E4
:10424000090B02024FF000414FF00000A1F50021E0
:1042500070BD19461046012851EB010418BFD4F572
:10426000001484BF002001F0004170BD53EA010C2E
:1042700017D41CF5801F58BFBCF5801F00F10680C5
:104280008B4218BF704708BF8242704707D713F5AB
:10429000801F58BF11F5801F19D48B4270479B4275
:1042A00070471CF5801F08D5BCF5801FF7D59942D3
:1042B00018BF704708BF904270474FF4001C1CEBBA
:1042C000430F38BF1CEB410F01D2994270470FB426
:1042D0000CBC03BCFFF771BFFF2141EAD050C00501
:1042E00070470CF00F03092B08BF082000F05F8017
:1042F0000A2B0BD0082B18BF704708BF1CF0400FCB
:104300000AD04FF000004FF0000170471CF0400F42
:1043100018BF4FF0004070471CF0100F08D020F07D
:10432000704300F07F4242EAD3014FEA4370704786
:1043300000F0604021F07F4242EA000201F07F403D
:1043400040EA727070474FF0FF0C4CF4E06C1CEACE
:1043500011531CBF9CEA030C9445C2BFDA4201EB27
:1043600002517047002B0DD0BCF1000F0FD0002A76
:1043700001F00041A4BF41F0E04141F07F614FF006
:104380000000704701F000414FF00000704750EA14
:1043900001334FF09B0C18BF4CF0806C7FF45CAE87
:1043A0007047FCF773BAFCF70BBDFCF795BE1CF425
:1043B000801F11D01CF4E02F03D06FEACC314900EC
:1043C00070474FF04050EFF3008222F0704242EA13
:1043D000000282F3008870474FF000007047000031
:1043E00002400000000000A00000000005400000A6
:1043F000000000C8000000000C4000000000409CCD
:1044000000000000194000000020BCBE00000000B9
:1044100034400000BFC91B8E00000004B5400000FE
:10442000504BCFD06607E2CF010000006C41000086
:104430003E8251AADFEEA73401000000D9420000FD
:10444000DCB5A0E23A301F97FFFFFFFFB445000044
:10445000FD25A0C8E9A3C14FFFFFFFFFFF3F0000FC
:104460000000008000000000FF3F0000000000800E
:1044700000000000C8450008000000203C010000CA
:1044800028010008144600083C010020140900001F
:1044900084010008000000000000F07F100100000F
:1044A00043000000F8FFFFFF004040404040404014
:1044B00040404141414141404040404040404040F7
:1044C000404040404040404040050202020202029B
:1044D00002020202020202020220202020202020EA
:1044E00020202002020202020202909090909090FE
:1044F00010101010101010101010101010101010BC
:10450000101010100202020202028888888888882F
:10451000080808080808080808080808080808081B
:104520000808080802020202400000000000000023
:10453000000000000000000000000000000000007B
:10454000000000000000000000000000000000006B
:10455000000000000000000000000000000000005B
:10456000000000000000000000000000000000004B
:10457000000000000000000000000000000000003B
:10458000000000000000000000000000000000002B
:10459000000000000000000000000000000000001B
:1045A0000000000000000000000000001C000000EF
:1045B00043000000F8FFFFFF0C0000000E000000A9
:1045C0000F0000002E0000001184A24A04400901DF
:1045D000020304060708098B400604A1120100111A
:1045E000A055534152543120496E746572727570F2
:1045F0007429D469D8051002040608138A037320AD
:10460000209AAA0C9ACA0CC1132D021B088B041AFB
:04461000D9040000C9
:04000005080000ED02
:00000001FF
